:100000000C9478100C94A0100C94A0100C94A010D8
:100010000C94A0100C94A0100C94A0100C94A010A0
:100020000C94A0100C94A0100C94E71E0C94561F76
:100030000C94A0100C94A0100C94A0100C94A01080
:100040000C94A0100C94A0100C94A0100C94A01070
:100050000C94A0100C94A0100C94A0100C94882167
:100060000C94A0100C94A0100C94A0100C94A01050
:100070000C94A0100C94A0100C94A0100C94A01040
:100080000C94D2210C94A0100C94A0100C94A010ED
:100090000C94A0100C94A0100C94A0100C94A01020
:1000A0000C94A0100C94A0100C94A010121D000031
:1000B00080E030081C1E3F3F7EFCF8F0E08000002E
:1000C000F8FFFF010000000000000001031FFFFF18
:1000D000FE00073FFFFFF8F0C0808000000080E0D6
:1000E0007F1F03000000000103070F0F1F0F0E0604
:1000F00003000000000000000000180C1EFFFFFEBF
:10010000F80000000000000000000000000000FFF8
:10011000FFFFFF00000000000000000000000000E2
:1001200000FFFFFFFF0000000000000000000000D3
:10013000000003070F1F1F0E060301000000000050
:10014000C0E0F0F8FC7E3F1E0E0418F8F0E0C0009E
:100150000000000301000000000080E0F8FF7F3F86
:10016000070000000080C060309C8E8F87838180F4
:100170000000000000181E0F0E0F07070707070FEB
:100180000F1F1F0F030200002030F87C3E1F0F06D8
:100190000604FCF8F0F00000000000000020303001
:1001A00030787CFFCFCF830100000060F0F8F0E0F2
:1001B000C0800000000003FFFFFFFE7C0000000184
:1001C00003070F1F1F0E0C0C0607030101000000A0
:1001D000000000008060101CFEFFFEFC000000001C
:1001E000008060100C0300000000FFFFFFFF000014
:1001F000000000070F0F0F0F0F0F0F0FFFFFFFFF84
:100200000F0F0F0F00000000000000000002070F9A
:100210001F1F0E0603020000000000E01E1E1E1E2F
:100220001E1E1E1E1E1E020000000000FC43603049
:1002300010183C3E7EFCFCF8E0C000000081E0E0CD
:10024000C08080000000000003FFFF3F00000101AC
:100250000303070F0F1F1E0E0C0603010000000012
:1002600000000080E070080C1E1F3E3EFC7C381031
:100270000000E0FCFFFF83404020103878FCFCF8D1
:10028000F0C000001F7FFFFFF8E0C080000000000A
:1002900081FF7F0F000000000103070F0F1F1F0EDB
:1002A0000602010000000000C0703C1E1E1E1E1E43
:1002B0001E1E9EDE7E1E0E06000100000000008055
:1002C000E0F0FC1E0700000000000000000000F04D
:1002D000FEFFFF1F00000000000000000000000003
:1002E0001F0F0F0F070000000000000000000000BB
:1002F000C0F0080C0E0F0F0F1F1F3FFEFCF8000090
:10030000000E3F7FFC7CFCF8F8F8F8F8FEF3F1E013
:10031000800000F8FEF3C080800000000000018132
:10032000C37F1F00000103070F0F1F1F1F1F0F07B1
:1003300003010000000000C0E030080C0E1E3F7EEC
:10034000FEFCF8F8E0C000003FFFFFF8E0C080804E
:1003500080C040613FFFFFFFFE00000003C3E7C70E
:10036000838101000080F07F3F0F01000000030344
:1003700007070F1F1F0E06030000000000001624D1
:1003800000000000C0E030383C7E7FFFFEFCFCF83F
:10039000F0C080000000C0F8FEFF07000000000071
:1003A000000001030F3FFFFFFFFEF000FFFFFFFF14
:1003B000F0800000000000000000000001FFFFFFCF
:1003C0003F0000071F3FFFFFFEFCF8F0E0C0C080C9
:1003D000C0E03C1F07010000000000000001010315
:1003E00007070F07070301000000000000000000DE
:1003F00000002010183CFEFFFEFCF800000000008A
:10040000000000000000000000000000FFFFFFFFF0
:10041000FF000000000000000000000000000000DD
:100420000000FFFFFFFFFF000000000000000000D1
:1004300000000000000080C0FFFFFFFFFFC08080C1
:10044000C0400000000000000000000000010103A7
:10045000070F07030301000000000000000080C038
:10046000E0F0F8FCFE7F3F1E0C0838F0E0C0C080D2
:100470000000000103070F07030100000000000057
:10048000E0FFFFFFFF3F0000000000000000000051
:10049000C0E0F0F87E3F1F0F0703000000000000DF
:1004A000C0F0F8CCCEE7E3E1E0E0E0E0E0E0E0C07F
:1004B000C0C080000C0F07070303030303030303FB
:1004C000030707070F0703000000000040E0F0F8F3
:1004D000FC7E3F3F1E0E040CF8F8F0F0E0E0000058
:1004E00000000000010100808080C0E0F0FCFFFF00
:1004F0007F3F0F0300000000000000010101010325
:100500000303070F7EFEFCFCF8F0C000081C3E7FD2
:10051000FEFCF8F0E0C080800000C0FFFFFF7F3FDE
:100520001F0000000000000103070F0F070703036F
:100530000301010000000000000000000000008036
:1005400060103CFEFFFEFEF800000000000000000E
:100550008060100C0300000000FFFFFFFFFF0000A1
:10056000000000007CFBF8F8F8F8F8F8F8F8F8FF5D
:10057000FFFFFFFFF8F8F8F8F800000000000000A7
:1005800000000000C0FFFFFFFFFFC08080C0000030
:1005900000000000000000000001010303070F0736
:1005A0000301010000000000000000E03E3E3E3E6E
:1005B0003E3E3E3E3E3E3E3E0E000000000000003D
:1005C000F80F008080C0E0F0F0F8F8F0E0C08000A4
:1005D00000000000100C07060301000000010103E9
:1005E000070F7FFFFFFFFC00004070F8FCF8F8F0F9
:1005F000E0E0C0C080000080E07F3F1F03000000FB
:10060000000000010303070F0F07070303010000A9
:10061000000000000000000080C070181C3E3F7FFA
:10062000FEFCFCF8F8702000000000F0FCFF1F0149
:100630000000000080C0C0E0F1E1E0C080000000E8
:10064000FFFFFFFF88040402010101010303070FFC
:100650003FFFFFFFFC00010F3F7FFFFEFCF8F0E0D3
:10066000C0C0808080C0703F1F07010000000000F4
:1006700000010307070F0F07070301000000000038
:100680000000000080F07C3E3E3E3E3E3E3E3E3E50
:100690003EBEFE7E3E0E060000020100000000008D
:1006A0000000C0E0F87C0E03010000000000000024
:1006B0000000000080F0FCFFFF1F030000000000AE
:1006C0000000000000000000C0FCFFFFFFFF03006F
:1006D00000000000000000000000000000000F0704
:1006E00007030303000000000000000000000000FA
:1006F00000000080E030181E1F1F1F3F3F3F3F7E5D
:10070000FEFCF8E000000000FEFFFFF0E0E0E0E0AB
:10071000E0E0C0C0E0F09F8F07010000000081E32F
:10072000F31F0F07070F0F0F0F0F0F1F1F3F7FFE46
:10073000F800003EFFFFFFF8F0E0E0C0C0C0C0C01E
:10074000C0C0E060100F03000000000103070707AE
:100750000F0F0F0F0703030100000000000000004F
:100760000080E0F038181C3E3F7FFEFEFCF8F0E011
:10077000C000000000FCFFFFFFE080000000000060
:100780000001030F3FFFFFFFF80000030F1F3F7F33
:10079000FFFE7C3C18180C04060301FFFFFF1F003E
:1007A00000000040E0FCF8F8F0E0E0C0C080C0705D
:1007B0003F1F0700000000000000000101030707C1
:1007C0000F0F070301000000000000001E300000B2
:1007D000000000000080C0E070F8FCFEFFFFFEFE9D
:1007E000FCF8F8F0E0C0000000000000000000C0CD
:1007F000F0FCFE1F0300000000010103070F1F3F74
:100800007FFFFFFFFFFEF8E0000000F0FFFFFFFFAB
:1008100000000000000000000000000000000001D7
:100820000F7FFFFFFFFFFE00007FFFFFFFFFFCE0E9
:1008300000000000000000000000000000000000B8
:10084000FFFFFFFF0F000000031F7FFFFFFFFFFE02
:10085000F8F0E0C0C080000000000080E0FC3F0F26
:100860000300000000000000000001070F1F1F3FF1
:100870007F7FFFFF7F3F1E0E060301000000000088
:10088000000000000000000000C0603078FCFEFFA7
:10089000FEFCF8E000000000000000000000000086
:1008A000000000000000000000000001FFFFFFFF4B
:1008B000FFFF00000000000000000000000000003A
:1008C00000000000000000000000FFFFFFFFFFFF2E
:1008D0000000000000000000000000000000000018
:1008E0000000000000000000FFFFFFFFFFFF00000E
:1008F00000000000000000000000000000000000F8
:10090000000000000000FFFFFFFFFFFF00000000ED
:100910008000000000000000000000000000000057
:100920000000060F0F1F3F7FFF7F3F1E0C060301D5
:1009300000000000000000000000000080C0E0F0A7
:10094000F8FCFEFEFFFE7C3C1870E0E0C0808000FA
:10095000000000000000080C1E7FFF7F3F1F0F07F4
:10096000030100000000000001FFFFFFFFFFFEFE8B
:100970000000000000000000000000000000000077
:1009800000000080C0F0FEFFFFFFFF3F0F030000EC
:10099000000000000000000000000080C0E0F8FC43
:1009A0007E3F3F1F0F070301000000000000000012
:1009B000000000C0E0703C1E8F878383C1C0C0C0B0
:1009C000C0C0808080808000000000000080F07C3B
:1009D0007F3F3E3F3F1F1F1F1F1F1F1F1F3F3F3FE8
:1009E0007F7FFFFF7F1F0F070200000000000080D5
:1009F000C0E0F0F8FCFCFEFF7E3E1C1C1818F0F076
:100A0000E0E0C0C080000000000000000101071FFE
:100A10000F07030301000000000000E0FFFFFFFFDD
:100A2000FFFF1F00000000000000000000006060E9
:100A30006070707078F8FCFEFFFF9F8F0F07010059
:100A400000000000000000000000000000000000A6
:100A5000000000000001030F3FFFFFFFFEFCF8C095
:100A600000000010387CFEFFFEFCF8F0F0E0C080D3
:100A700000000000000000FFFFFFFFFFFF3F00003D
:100A800000000000000103070F1F3F7FFFFF7F7E74
:100A90003C38181C1F0F070703010000000000006E
:100AA0000000000000000000000080C070F8FEFFA1
:100AB000FEFEFCF00000000000000000000000004E
:100AC00000000080C070180E03000000FFFFFFFF51
:100AD000FFFF0000000000000000000080E0701C2C
:100AE00006030000000000000000FFFFFFFFFFFF03
:100AF0000000000000000000000FFFFCFCFCFCFCFC
:100B0000FCFCFCFCFCFCFCFCFFFFFFFFFFFFFCFC13
:100B1000FCFCFCFCE0000000000000000000000005
:100B2000000000000000FFFFFFFFFFFF00000000CB
:100B300000000000000000000000000000000000B5
:100B40000000060F1F3F3F7FFF7F3F1E0E06030181
:100B5000000000000000000080FEFEFEFEFEFEFE23
:100B6000FEFEFEFEFEFEFEFEFE1E06000000000073
:100B70000000000000C0FF010000000000000000B5
:100B800080C08000000000000000000000000000A5
:100B90000000F0BF80C0607030181C3E3E7F7FFFB9
:100BA000FFFFFFFEFCF8E0C00000000000000004B2
:100BB000030301000000000000000000000001032A
:100BC0000F3FFFFFFFFFFE0000000080C0E0FCF8C9
:100BD000F8F0E0E0C0C0800000000000000000C0AD
:100BE000FFFF7F1F030000000001010307070F1F25
:100BF0001F3F7F7FFFFF7F7E3C3C181C0F070301D8
:100C00000000000000000000000000000000008064
:100C1000C0203078FCFEFFFEFEFCF8F8F0E0E0C0FB
:100C20004000000000000000C0F0F8FE3F07010097
:100C30000000000001030307070F0F070300000077
:100C4000000000C0FCFFFFFFFF07000080C0406005
:100C5000303078FCFEFFFEFEFCF8F0E0C000000043
:100C600000FFFFFFFFFFFFC60301010000000000BF
:100C700000000001030F3FFFFFFFFFFE0000000127
:100C80000F3FFFFFFFFFFFFCF8E0C0808000000087
:100C900000000080F0FF7F1F070000000000000040
:100CA0000001070F0F1F3F7F7FFFFF7F3F3E1E0C9E
:100CB0000603010000000000000000000000E0F852
:100CC000FEFEFEFEFEFEFEFEFEFEFEFEFEFEFEFE44
:100CD000FEFEFE7E1E0E020000301C0F030101000E
:100CE00000000000000000000080C0F0781C0F032E
:100CF00000000000000000000000000000000000F4
:100D0000000080E0F8FCFF7F0F03000000000000FF
:100D100000000000000000000000000080E0FCFE79
:100D2000FFFFFF3F03000000000000000000000084
:100D30000000000000000000E0FCFFFFFFFFFFFFDD
:100D40000F00000000000000000000000000000094
:100D50000000000000FC7F7F7F3F3F1F1F1F00003F
:100D60000000000000000000000000000000000083
:100D700000000000C06070787E7F7F7F7F7FFFFF74
:100D8000FFFEFEFCFCF8F0E0000000000000C0F8F0
:100D9000FEFF8300000000000000000000000001D2
:100DA00003FFFFFF7F1F0000000000000F3F7FFFD9
:100DB000FFFFFEFEFEFCFCFCFCFCFCFCFCFEFFFB63
:100DC000F1F0E0C000000000000000C0F0F81D07D6
:100DD000030303030303030307070707070F0F1F9B
:100DE0007FFFFFFC00000030FFFFFFFFF8E0E0C0E6
:100DF00080808000000000000000008080C0603F14
:100E00000F030000000001070F1F3F3F7F7F7FFFA0
:100E1000FFFFFFFF7F3F1F1F0F07030100000000C0
:100E20000000000000000000C0E06070787CFEFE62
:100E3000FFFEFEFCFCF8F0E0C080000000000000B7
:100E40000080F0FCFEFF070000000000000001032E
:100E5000070F1F7FFFFFFFFFFFFCF0000000007F78
:100E6000FFFFFFFFFEF0E0C08000000000000080F8
:100E700080C0E16FFFFFFFFFFFFF000000000307DE
:100E80000F1F3F7FFF7F7F3F1E1E0C0603030100E5
:100E90000000FFFFFFFF7F0700000000000080C090
:100EA000E0F8F0F0E0C0C0800000000000C0F8FFF3
:100EB0007F1F070100000000000000020307070F6A
:100EC0001F1F3F7F7FFFFF7F3E1E0F0301000000BB
:100ED000000000000000060164000080F7006400CC
:100EE0000080C40064000080A500640000808300CE
:100EF000640000807B006400008062006400008069
:100F00005200640000804100640000803E006400E4
:100F1000008031006400008029006400008021000E
:100F20006400008083004600C4004600060164009F
:100F30000080A500460083006400008000000000DF
:100F4000003E5B4F5B3E3E6B4F6B3E1C3E7C3E1C4F
:100F5000183C7E3C181C577D571C1C5E7F5E1C0095
:100F6000183C1800FFE7C3E7FF0018241800FFE74C
:100F7000DBE7FF30483A060E2629792926407F050F
:100F80000507407F05253F5A3CE73C5A7F3E1C1C25
:100F900008081C1C3E7F14227F22145F5F005F5FE5
:100FA00006097F017F006689956A606060606094D1
:100FB000A2FFA29408047E040810207E20100808D6
:100FC0002A1C08081C2A08081E101010100C1E0CE1
:100FD0001E0C30383E3830060E3E0E060000000073
:100FE0000000005F00000007000700147F147F145A
:100FF000242A7F2A1223130864623649562050009F
:1010000008070300001C2241000041221C002A1C8A
:101010007F1C2A08083E0808008070300008080875
:101020000808000060600020100804023E51494595
:101030003E00427F400072494949462141494D33B3
:101040001814127F1027454545393C4A494931411A
:10105000211109073649494936464949291E0000E8
:10106000140000004034000000081422411414143D
:101070001414004122140802015909063E415D5929
:101080004E7C1211127C7F494949363E4141412232
:101090007F4141413E7F494949417F090909013E5C
:1010A000414151737F0808087F00417F4100204083
:1010B000413F017F081422417F404040407F021C95
:1010C000027F7F0408107F3E4141413E7F090909AC
:1010D000063E4151215E7F09192946264949493278
:1010E00003017F01033F4040403F1F2040201F3F3E
:1010F0004038403F631408146303047804036159C3
:10110000494D43007F414141020408102000414104
:10111000417F0402010204404040404000030708B0
:101120000020545478407F284444383844444428AC
:10113000384444287F385454541800087E09021853
:10114000A4A49C787F0804047800447D40002040DB
:10115000403D007F1028440000417F40007C04781F
:1011600004787C080404783844444438FC18242467
:101170001818242418FC7C080404084854545424E7
:1011800004043F44243C4040207C1C2040201C3C64
:101190004030403C44281028444C9090907C44645B
:1011A000544C4400083641000000770000004136EE
:1011B000080002010204023C2623263C1EA1A16174
:1011C000123A4040207A38545455592155557941A6
:1011D0002154547841215554784020545579400C7D
:1011E0001E5272123955555559395454545939555E
:1011F0005454580000457C410002457D42000145A1
:101200007C40F0292429F0F0282528F07C5455450D
:10121000002054547C547C0A097F493249494932A0
:101220003248484832324A4848303A4141217A3AB5
:1012300042402078009DA0A07D39444444393D407F
:1012400040403D3C24FF2424487E4943662B2FFC2C
:101250002F2BFF0929F620C0887E090320545479DA
:10126000410000447D413048484A32384040227AAB
:10127000007A0A0A727D0D19317D2629292F282628
:101280002929292630484D40203808080808080830
:101290000808382F10C8ACBA2F102834FA00007B89
:1012A000000008142A142222142A1408950022008F
:1012B00095AA005500AAAA55AA55AA000000FF0049
:1012C000101010FF00141414FF001010FF00FF1086
:1012D00010F010F0141414FC001414F700FF0000B8
:1012E000FF00FF1414F404FC141417101F10101F37
:1012F000101F1414141F00101010F0000000001F25
:10130000101010101F10101010F010000000FF102F
:101310001010101010101010FF10000000FF14002B
:1013200000FF00FF00001F10170000FC04F414145D
:101330001710171414F404F40000FF00F714141429
:1013400014141414F700F7141414171410101F10A9
:101350001F141414F4141010F010F000001F101FCC
:101360000000001F14000000FC140000F010F0103A
:1013700010FF10FF141414FF141010101F000000B1
:1013800000F010FFFFFFFFFFF0F0F0F0F0FFFFFFB5
:101390000000000000FFFF0F0F0F0F0F384444380C
:1013A000447C2A2A3E147E02020606027E027E0247
:1013B00063554941633844443C04407E201E200666
:1013C000027E020299A5E7A5991C2A492A1C4C72A3
:1013D00001724C304A4D4D303048784830BC625A2A
:1013E000463D3E494949007E0101017E2A2A2A2ABA
:1013F0002A44445F444440514A444040444A514096
:101400000000FF0103E080FF000008086B6B083656
:1014100012362436060F090F0600001818000000C7
:101420001010003040FF0101001F01011E00191DB6
:101430001712003C3C3C3C0000000000080B00027E
:10144000020200000904000001020200000524005D
:1014500010010524010101042402060524060001EF
:101460000705810310004009040100020A00000082
:101470000705020240000007058302400000040344
:10148000090412010002EF020140412336800001ED
:101490000102030141726475696E6F204C4C430078
:1014A00041726475626F7900F0F89C8E8783878E35
:1014B0009CF8F00000FEFF0303030303070EFCF893
:1014C0000000FEFF0303030303070EFCF80000FF08
:1014D000FF00000000000000FFFF0000FEFF83830C
:1014E000838383C7EE7C380000F8FC0E07030303F8
:1014F000070EFCF800003F7FE0C08080C0E07F3F27
:10150000FFFF01010101010101FFFF0000FFFF0CCE
:101510000C0C0C1C3E77E3C100007FFFC0C0C0C0B4
:10152000C0E0703F1F00001F3F70E0C0C0C0E0700F
:101530003F1F00007FFFC1C1C1C1C1E3773E1C0056
:10154000001F3F70E0C0C0C0E0703F1F00000000FF
:101550000001FFFF01000000D5F08D14A1C881CF6C
:10156000D9F1AF2000561B02FEFE02020202060461
:101570001CF8E0000000FFFF402020E0C00000C099
:10158000E0202020E0C0000000E0E040206000E01B
:10159000E0402020E0C0402020E0C00000C0E0206B
:1015A0002020E0C00000000000C020C000808000BB
:1015B0008040408000808000C020C00000203F3F6D
:1015C0002020202030101C0F030000003F3F0000AF
:1015D000003F3F00001C3C2222113F3F2000003F03
:1015E0003F200000003F3F0000003F3F0000003F61
:1015F0003F00001C3C2222113F3F20000002071A3E
:10160000229A0708080708171708070808071A2268
:101610001A070240E0584458E01010E010E8E810C3
:10162000E01010E0584458E0400000000000F0F8DE
:101630000C04041C180000F0F80C04040CF8F00072
:1016400000FCFC00000000FCFC000000FCFC0804A6
:1016500004FCF8000004FEFF0404F0F82C242438F5
:1016600030000000FCFC08040C000003040300012F
:101670000100010202010001010003040300000057
:101680000000000001030706040201000001030638
:101690000404060301000003070604040207070010
:1016A000000007070000000707000000070704020A
:1016B00001030706060201000000070704000021DD
:1016C00000460000802700460000801F08007EFFC3
:1016D00081007E4A4A4A340081FFFFFFFFFFFFFF7F
:1016E000FFFFC3BDBDC3FFFFFF7E00001F0800005A
:1016F000007EFF81B5B5B5CBFF7E00000000000085
:101700000000003C42423C0000000000001F0800B6
:1017100000007EFF81B5B5B5CBFF7E000000000064
:1017200000000000080808080800000000001F086A
:101730000000007EFF83EDEDED83FF7E00000000E2
:10174000000000000010107C101000000000001FBE
:10175000080000007EF7E7D1BDD1E7F77E0000006A
:1017600000000000000004041F040400000000004A
:101770001F080000007EEFE78BBD8BE7EF7E0000C7
:101780000000000000000122340F112600000000BC
:10179000001F080000007EEFE78BBD8BE7EF7E00A7
:1017A000000000000000000020300F0106000000D3
:1017B00000001F0800102844EE28387CC6D610BA56
:1017C000D6EE7C00F810F800F888F800F888700071
:1017D000F8A8881F087CEED6BA10D6C67C3828EE4A
:1017E00044281000003E043E003E223E003E221CE3
:1017F000003E2A220404060F0D060404060F0F06FD
:10180000040406090B060F180000C070180C0E1F08
:101810003E7EFCF8E0800000FEFFC00000000000FB
:10182000000007FF7F000001071F3F7C78F8702051
:10183000100C03000000000008040EFFFEFC000076
:1018400000000000000000000000FFFFFF0000009B
:101850000000000000000000303F7FFF70201000FB
:101860000000000020F0783C1E0F0E060CF8F0E09F
:101870000000000000000080C0E0783E1F0F030061
:1018800000C0F06876737979787878F87030000065
:1018900010383C1E0F070282FCFCF87800000000A4
:1018A000000C0C0C0C0E1F7FF3F1E08000040E1FE7
:1018B0003E7CF8F06040203F1F1F07000000000042
:1018C000C020180CFFFFFE0000000010E8E6E1E079
:1018D000E0E0E0FFFFFFE0E0E000000000000000CB
:1018E00000307F7FFF70201001000000FC0F0F0F01
:1018F0000F0F8F0F0F01000000001F0804040207E4
:101900000F1F3FFEFCF00010181E3C7C78F070604A
:1019100020301F0F0300000080C0F018040E0F1EBF
:101920003E3C1C080000FCFFFF101008040E1E3F88
:10193000FEFCF00000010F1F3F7CF8F07020180F34
:101940000701000060180E0E0E0E0E0ECEEE3E0EBB
:1019500006000000000000E0F8FE0F030000000099
:1019600000000000F87F7F3F010000000000000041
:1019700000C0F0080C0F0F0F0F0F1EFE7C000000C0
:1019800087CF7F1F1E1E1E1E1E3F3C78F000001FCB
:101990003F7E78F8F0F07070301804030000C0E06B
:1019A00018040E0E1F3E7EFCF8F08000000F3F7EF4
:1019B000F870602010080DFFFF3F000000183C3C4D
:1019C00078F8F060300E070100001F0800000000EA
:1019D000000000000004FE007C82827C006C929279
:1019E0006C0000000000000000000005050E1F1D37
:1019F000190E1F0800000000102810000004FE004F
:101A00007C82827C006C92926C0000102810000096
:101A100000000060401028C40408101010100804D2
:101A20000404040810101010080404040408101022
:101A30001010080404040408101010100804040412
:101A400004081010101008040404040810101010EA
:101A50000804040404081010101008040404040806
:101A600010101010080404040408101010100804CA
:101A70000408F00000000081423C00000000000C5F
:101A800012A142020404182020100808080810209F
:101A90002020201008080808102020202010080806
:101AA0000808102020200010080808081020202016
:101AB0002010080808081020202020100808080816
:101AC00010202010080404040408F00000000000A6
:101AD0003C4281000000000708F000000000001CEC
:101AE0001221404080800000000000000000000043
:101AF00000000000000000000000000000000000E6
:101B000000000000000000000000000000000000D5
:101B100000000000000000000000000000000000C5
:101B200000000000000000001E21C00000000000B6
:101B3000F00807000000001E21C0000000000000A7
:101B4000000000000080417EC08000800000000096
:101B50000000000000000000000000000000000085
:101B60000000000000000000000000000000000075
:101B70000000000000000000000000000000000065
:101B80000000000000000000788403000000000056
:101B9000C0211E0000000078840300000000000047
:101BA00080402010080B040404432916492A5400DD
:101BB0000000000000000000000000000000000025
:101BC0000000000000000000000000000000000015
:101BD0000000000000000000000000000000000005
:101BE0000000000000000000E0100F0000000000F6
:101BF00003847800000000E0100F000000000003E4
:101C000084780000000000000000000000000000D8
:101C100000000000000000000000000000000000C4
:101C200000000000000000000000000000000000B4
:101C300000000000000000000000000000000000A4
:101C4000000000000000000081423C000000000095
:101C50000F10E00000000081423C00000000000F77
:101C60001020404020101010102040404040201014
:101C70001010102040404040201010101020404014
:101C80004040201010101020404040402010101004
:101C9000102040404040201010100804040810603C
:101CA00080808040408000030418608000000000B5
:101CB0003C4281000000000708102020100808089E
:101CC00008102020202010080808081020202020BC
:101CD0001008080808102020202010080808081004
:101CE000202020201008080808102020202010089C
:101CF00008080810202020201008080808102020BC
:101D000020201008080601000000030408102040ED
:101D1000404837000009160814D4223F22D4140882
:101D2000000CD22D2D2DD20C00040A0A113F110AED
:101D30000A040916081CD4F63FF6D41C08000CD27D
:101D4000FF2DFFD20C00040E0A1B3F1B0A0E041FBE
:101D5000080000000000000000000000E292928CE9
:101D6000000004FE00000000000000000000000071
:101D70001F080000000000001028100000E29292EE
:101D80008C000004FE00001028100000000000007D
:101D9000002408FE12120C00FE1212EC00FE9292B9
:101DA00082004C929264004C9292640000007EFF8C
:101DB00083EDEDED83FF7E1717000000800000002B
:101DC0000814D4223F22D414080000008000000030
:101DD000081C6B886B1C22221CAA416B41AA1C2286
:101DE000221C6B886B1C0800000000000000081417
:101DF00015227E22151408000000000000001717AD
:101E000000000080000000081CD4F63FF6D41C0837
:101E100000000080000000081C7FC97F1C36361CB3
:101E2000BEE36BE3BE1C36361C7FC97F1C08000076
:101E30000000000000081C15377E37151C08000044
:101E400000000000001F080000000000000000006B
:101E5000000000000602C2320E0000000000000078
:101E60000000000000001F0800000000000000004B
:101E700010281000000602C2320E000010281000C8
:101E8000000000000000001F08000000001018748F
:101E900042741810000000000000000000024468B6
:101EA0001E224C00000000001F080000047C0400FB
:101EB000781478007C4040007C4040001C601C008E
:101EC00000087C007C447C00001F08000000047CAB
:101ED0000400781478007C4040007C4040001C6086
:101EE0001C00005C547C000000001F08000000047F
:101EF0007C0400781478007C4040007C4040001C4A
:101F0000601C00007C547C000000001F08000000E2
:101F1000047C0400781478007C4040007C40400041
:101F20001C601C000004047C000000001F0800006E
:101F300000047C0400781478007C4040007C404021
:101F4000001C601C00007C5474000000001F08008E
:101F50000000047C0400781478007C4040007C4041
:101F600040001C601C00005C5474000000001F084E
:101F7000000000047C0400781478007C4040007C61
:101F80004040001C601C00001C107C000000001F72
:101F900008000000047C0400781478007C404000B5
:101FA0007C4040001C601C000054547C0000000079
:101FB0001F08000000047C0400781478007C404076
:101FC000007C4040001C601C000074545C00000059
:101FD000001F08000000047C0400781478007C4096
:101FE00040007C4040001C601C0000087C00000099
:101FF00000001F400000000000007C0810087C006A
:1020000038444438007C444438007C545444000034
:1020100000000000000000000000000000000000C0
:1020200000000000000000000000000000000000B0
:10203000000000000088C80808080808C8880808C8
:102040000808880888088888880888880808888098
:1020500080000205081D05070007051D0805020090
:10206000000F010F000F080F000F0807000F0A08EC
:1020700000000000080C3A213A0C080000000000A3
:10208000000000000020300F0106000000000000EA
:10209000000000040C1721170C04000000000000D1
:1020A0000000000008083E080800000000000000D2
:1020B0000000007E4A4A4A34000000000000000090
:1020C00000000010101010100000000000000000C0
:1020D0000000F8242424F8000000000000000000A4
:1020E00000002020F8202000000000006622BE2B07
:1020F00011241FBECFEFDAE0DEBFCDBF13E0A0E0BA
:10210000B1E0ECE5FFE502C005900D92AA34B107FD
:10211000D9F728E0AAE4B3E001C01D92A931B207C3
:10212000E1F710E1C7E7D0E104C02197FE010E946A
:10213000A92DC637D107C9F70E9496220C94A12F6A
:102140000C940000809192030895EBEAF3E0A0E084
:10215000B8E000800EBC8111012C1197A0FDFDCFCD
:102160000192B9F70DB40895FC018091AA03882368
:1021700011F13FB7F89482E08093E9002091F200DA
:10218000822F90E01816190614F481E090E088235D
:1021900039F0289844E64093A9034091F100408328
:1021A000222339F02091F200211103C02BE6209365
:1021B000E8003FBF08958FEF9FEF08952FB7F89481
:1021C00083E08093E9009091E800892F807295FF69
:1021D00004C09091F20080E4891B2FBF0895809184
:1021E000A10381110DC082E080939D0384E0809360
:1021F0009E031092A00310929F0381E08093A1039D
:102200008DE993E00895FC012481358162177307FD
:1022100020F480819181009729F41092630383E672
:1022200093E00895860F971F0895089540915F03E6
:102230005091600320915D0330915E034217530774
:10224000B4F49091E8009570E1F39091E80092FD6C
:1022500019C08093F10080915F0390916003019613
:102260008F739927892B19F48EEF8093E800809162
:102270005F039091600301969093600380935F03E6
:1022800081E0089580E00895DF92EF92FF920F932E
:102290001F93CF93DF93D82E8A01EB017B01E40ECD
:1022A000F51ECE15DF0559F0D7FE12C0FE01849150
:1022B0000E94161121968111F4CF0FEF1FEFC80174
:1022C000DF91CF911F910F91FF90EF90DF900895D4
:1022D0008881EECF0F931F93CF93DF931F92CDB7DB
:1022E000DEB782E0898342E450E06CE374E180E889
:1022F0000E9444110E94EF10DC0112960D911C9176
:102300000115110589F0D801ED91FC910280F3814E
:10231000E02DBE016F5F7F4FC801099597FD04C096
:10232000F80100851185ECCF89810F90DF91CF9165
:102330001F910F910895615030F02091F100FC0140
:1023400020830196F8CF289884E68093A903089506
:10235000AF92BF92CF92DF92EF92FF920F931F93B3
:10236000CF93DF936C017B018B01040F151FEB01F1
:102370005E01AE18BF08C017D10759F06991D601A8
:10238000ED91FC910190F081E02DC6010995892B1A
:1023900079F7C501DF91CF911F910F91FF90EF90D9
:1023A000DF90CF90BF90AF900895FC01448155819C
:1023B0006081718181E198E00C94A811CF93DF9343
:1023C0001F92CDB7DEB76983DC01ED91FC910280ED
:1023D000F381E02D41E050E0BE016F5F7F4F099532
:1023E0000F90DF91CF91089583E08093E900809171
:1023F000F200882319F08AE38093E80008950E9490
:10240000DE1090E00895CF93DF931F92CDB7DEB733
:10241000FC018485958597FD08C02FEF3FEF358738
:1024200024870F90DF91CF910895CE0101960E94ED
:10243000B410019719F4898190E0F3CF8FEF9FEFEB
:10244000F0CF0F931F93CF93DF931F92CDB7DEB7DB
:102450008C01FC018485958597FF0BC0CE01019608
:102460000E94B410019771F4898190E0F80195877A
:102470008487F801848595850F90DF91CF911F9116
:102480000F9108958FEF9FEFF1CFFC018485958523
:1024900097FD0BC09FB7F89482E08093E90080918C
:1024A000F2009FBF90E0019608959FB7F89482E0F4
:1024B0008093E9008091F2009FBF90E008953FB7BC
:1024C000F8948091590390915A03A0915B03B091C5
:1024D0005C0326B5A89B05C02F3F19F00196A11DEE
:1024E000B11D3FBFBA2FA92F982F8827BC01CD015E
:1024F000620F711D811D911D42E0660F771F881FBD
:10250000991F4A95D1F708958F929F92AF92BF92EB
:10251000CF92DF92EF92FF926B017C010E945F12DB
:102520004B015C01C114D104E104F104B9F00E9433
:102530005F12681979098A099B09683E7340810511
:10254000910580F321E0C21AD108E108F10888EE74
:10255000880E83E0981EA11CB11CE4CFFF90EF9081
:10256000DF90CF90BF90AF909F908F9008958F9203
:102570009F92AF92BF92CF92DF92EF92FF920F9312
:102580001F93CF93DF936C017B018A0180910B0134
:10259000882309F45CC08091AA03882309F457C0FA
:1025A0008091640380FF05C08091E0008260809389
:1025B000E000E801B12C8AEFA82E93E0892E2AE3EF
:1025C000922E209711F4BB20D9F10E94DE108111C8
:1025D0000AC0AA94AA20D9F161E070E080E090E0FE
:1025E0000E948412EECF8C171D0611F00CF08C2F78
:1025F0009FB7F8948092E9002091E80025FD02C081
:102600009FBFDFCF282F30E0C21BD30BF7018150D3
:1026100020F041914093F100FACFE20EF31EBB206F
:1026200021F09092E800B12CEBCF8091E80085FD7D
:10263000E7CF9092E800BB24B394209709F3F3CF3F
:102640005D9884E680936203101611063CF081E0E9
:1026500090E0F6019383828310E000E0C801DF91EF
:10266000CF911F910F91FF90EF90DF90CF90BF908F
:10267000AF909F908F90089520915103E0914F0368
:10268000F0915003CF0102969093500380934F0333
:10269000222319F085919491089580819181089564
:1026A000CF92DF92EF92FF92CF93DF930E943C1381
:1026B000811520E8920791F4809171008D7F8093BD
:1026C0007100109291004698479810924E03DF9146
:1026D000CF91FF90EF90DF90CF90089521E020936D
:1026E0004E03813020E8920751F480914C03909181
:1026F0004D039093500380934F030E943C1397FD2A
:1027000005C020914B03222309F454C020914A03B1
:10271000211150C021E020935203EC01DF77209774
:1027200009F04BC081E08093530346983FE9C32EE4
:102730003FE0D32EE12CF12CCAEFD0E0E091090864
:10274000F0910A080995811103C081E08093530339
:1027500080915203882329F080915303882309F440
:102760003FC047980E943C130097F1F19C01DE01A5
:102770000E949A2DDC01CB0129E0B595A79597958C
:1027800087952A95D1F7109290002AE02093910026
:10279000D0929900C092980080935403909355036F
:1027A000A0935603B0935703809171008260809389
:1027B00071008DCF10925203B0CF9E0150E040E0E7
:1027C00060E472E48FE090E00E940F2D69017A01CD
:1027D00081E0C81AD108E108F10810925303AECF86
:1027E0004699BFCF479ABECF8FEF9FEFDC01CBCF8B
:1027F0009C01E1E7F0E090819D7F908381E08093F0
:1028000051033093500320934F0330934D03209393
:102810004C030C9450134F925F926F927F928F9261
:102820009F92AF92BF92CF92DF92EF92FF920F935F
:102830001F93CF93DF934C015901FC2DC02FD0E0A3
:10284000CE01880D991D181619060CF06CC020E8F1
:10285000821691040CF067C09B012E0D311D1216DB
:1028600013060CF060C0603471050CF05CC04115BB
:10287000510509F458C0E62FE770FE2EDB0177FD05
:10288000179633E0B595A7953A95E1F73A2F77FF7C
:1028900004C0FF2011F03FEF3A0F66277727681931
:1028A000790997FC02C070E060E0803891050CF473
:1028B0004BC090E89819961BA32F032E000CBB0B5E
:1028C0001A2F10953F3F0CF010E021E08E2D8770FD
:1028D00009F420E0E694E694E694E20EAE0DB11D14
:1028E00019971CF028E0E22EE31AE11A310F20E8D4
:1028F0003203D0011124A80DB91DA60FB71F019FE7
:10290000600D711D1124460F571F0F2D0F2C000C49
:10291000110BF33009F41CC1C8F4F13009F4D0C034
:10292000F23009F47CC0DF91CF911F910F91FF909D
:10293000EF90DF90CF90BF90AF909F908F907F905F
:102940006F905F904F900895902FB5CFFA3FB1F1FF
:10295000232F2E0DFB3F39F7321729F3BD016555A3
:102960007C4FD12CC12CC91608F0A4C0FA01EC0D83
:10297000FD1DE491F0E04F01002E02C0880C991C6F
:102980000A94E2F737FD06C0FB018081E82CE09451
:102990008E218083FF2061F0373054F45B01F0E832
:1029A000AF0EB11CE92CE094F50180818E2180836B
:1029B000FFEFCF1ADF0A6F5F7F4FD5CF232F2E0D8A
:1029C000321709F4B0CFBD0165557C4FD12CC12C15
:1029D000C91608F069C0FA01EC0DFD1DE491F0E0A4
:1029E0004F01002E02C0880C991C0A94E2F737FDB3
:1029F00004C0FB01808188298083FF2051F037309B
:102A000044F45B01F0E8AF0EB11CF5018081892927
:102A10008083FFEFCF1ADF0A6F5F7F4FD9CF6FEF51
:102A200070E00F2C02C0660F771F0A94E2F76095E2
:102A30007095772E232F2E0D321709F474CFFD01D8
:102A4000E555FC4F6F01B12CA12CA91638F5FA0100
:102A5000EA0DFB1DE491F0E02F01002E02C0440CB2
:102A6000551C0A94E2F737FD05C0F60180818623E4
:102A700084298083FF2059F037304CF44601F0E878
:102A80008F0E911CF4018081872185298083FFEFBF
:102A9000AF1ABF0A8FEFC81AD80AD7CF3F5F4C0FC3
:102AA0005D1FA058BF4FC8CF3F5F4C0F5D1FA058A0
:102AB000BF4F86CF3F5F4C0F5D1FA058BF4F4CCF1D
:102AC0006A0D7B1D232F2E0D321709F42CCFFD012B
:102AD000E555FC4F6F01B12CA12CA91688F5FB011F
:102AE000EA0DFB1D8490912C002E02C0880C991CCD
:102AF0000A94E2F780949094FA01EA0DFB1D649029
:102B0000712C002E02C0660C771C0A94E2F737FD88
:102B100005C0F6018081882186298083FF2049F045
:102B200037303CF4F601E058FF4F80818921872936
:102B30008083FFEFAF1ABF0A8FEFC81AD80ACDCF34
:102B40003F5F4C0F5D1F6C0F7D1FA058BF4FBCCF68
:102B5000C92ED12CFA01E60FF71FA555BC4F00E88E
:102B600010E00C191D09CC19DD09BE01660F771F95
:102B700041E050E06A010F2C01C0CC0C0A94EAF746
:102B8000592F2E2D792ECF93DF93ED01EF96EF96EF
:102B900022968590A590FF2059F08C9C4001AC9C1A
:102BA000500137302CF4E880B094EB20E928E9920A
:102BB00033233AF0EC90A094EA20E828ED920C94AC
:102BC000E21511965A9529F72A9551F0572D33950C
:102BD0001124E60FF11DA00FB11DC00FD11DD9CFDB
:102BE000DF91CF9111249FCECF92EF920F93CF938D
:102BF000DF93DC01FA0104913196E4904E5F5F4F60
:102C00002223D1F0C1E0D0E09E2D977011F4D0E0E6
:102C1000C0E0EE2DE695E695E695EC0FFD2FF11D53
:102C20000E9FE0010F9FD00D11242C9FC0012D9FFE
:102C3000900D1124480F591F82E0C82E30E020E08B
:102C4000CD010E940B14DF91CF910F91EF90CF90A7
:102C500008952D9A0895BC0190E080E00C948412B0
:102C60008FB18095807F669B88601C9B84600895EF
:102C7000109292033E983F9808953E9A3F9A81E0C1
:102C800080939203089580E0EBEAF3E081118FEFE7
:102C9000002481938193819381930394D1F71092BF
:102CA0009403109293031092960310929503089543
:102CB0002F923F924F925F926F927F928F929F924C
:102CC000AF92BF92CF92DF92EF92FF920F931F933A
:102CD000CF93DF9300D01F92CDB7DEB76D30D1F028
:102CE00020910D012983C0909303D0909403822FEB
:102CF00090E06A3039F5109296031092950343E004
:102D0000880F991F4A95E1F7C80ED91ED0929403F7
:102D1000C092930381E090E00F900F900F90DF91AD
:102D2000CF911F910F91FF90EF90DF90CF90BF90C8
:102D3000AF909F908F907F906F905F904F903F905B
:102D40002F90089520919503309196033B832A8319
:102D500035E0639FF0011124E45CF04F0A811B8190
:102D600040E030E1832E912C453029F09F012F5F08
:102D70003F4F9490F901560128E0722E592D517061
:102D8000552EB801662E262F201B3981231760F59A
:102D9000F12CE12C5981E51620F560387105D0F44D
:102DA00095012E0D3F1D20343105A0F451E021FD89
:102DB00054E020FD550F22FD5295287F829ED001C0
:102DC0001124A60D452EA555BC4F2C91552031F050
:102DD000252B2C93AFEFEA1AFA0ADCCF409424217A
:102DE000F8CF6F5F7F4FCECF96947A94A80EB91E1E
:102DF0007110C4CF4F5F080F191F463009F0B3CFD1
:102E00002A813B815981549F200D311D112430931B
:102E10009603209395037ECF90917F03982329F00A
:102E200090918003982381E009F080E008959091CB
:102E30007F03982329F490918003982381E009F47B
:102E400080E00895CF93C82F0E943016982F9C23BE
:102E500081E09C1380E0CF91089580E00C94A51050
:102E6000680F791F6150710920917B0330917C03B9
:102E7000621773072CF02C5E3F4F2817390794F424
:102E8000E7E6F3E021913191621773072CF02D5F93
:102E90003F4F2817390734F423E0EB37F20791F757
:102EA00081E0089580E00895E0919B03ED3008F003
:102EB0003AC0F0E0E25AF84E0C94A92D6B176F1748
:102EC0007217751778177B177E1781178417871766
:102ED0008A178D1790178EE19FE00C94F81388E104
:102EE0009FE0FBCF82E19FE0F8CF8CE09FE0F5CF41
:102EF00086E09FE0F2CF80E09FE0EFCF8AEF9EE098
:102F0000ECCF84EF9EE0E9CF8EEE9EE0E6CF88EE38
:102F10009EE0E3CF82EE9EE0E0CF8CED9EE0DDCF41
:102F200086ED9EE0DACF089590E080E00895FC0100
:102F300001900020E9F73197AF01481B590BBC0104
:102F400081E198E00C94A8110C94F92C0F931F9335
:102F5000CF93DF938C01EB010E94F92C8883C80189
:102F600001960E94F92C8983CE01DF91CF911F91A8
:102F70000F9108950F931F93CF93DF93E0919B03DD
:102F80008DEF8E0F8A30D8F4E350FF0BEE0FFF1F4A
:102F9000E959FC4F00811181C7E9D3E0075913407B
:102FA000C8018C0F9D1F0E94F92C899383E0CB39B7
:102FB000D807B1F7DF91CF911F910F91089510922B
:102FC0009703109298031092990310929A03F2CFEC
:102FD000FF920F931F93CF93DF93EC01F62E08819E
:102FE0001981C8010E94F92CF81621F06F2DC80133
:102FF0000E94012DCE01DF91CF911F910F91FF9083
:103000000895AF92BF92CF92DF92EF92FF920F930B
:103010001F93CF93DF9300D0CDB7DEB78B016B0149
:1030200024E0C20ED11C7B015C01A61AB70AC501BF
:103030008E0D9F1D9A838983F70161917F01CE01D7
:1030400001960E94E817EC14FD0489F7C8010F905F
:103050000F90DF91CF911F910F91FF90EF90DF9034
:10306000CF90BF90AF900895EF92FF920F931F9370
:10307000CF93DF9300D0CDB7DEB78C017B019A836D
:103080008983FB016081CE0101960E94E8170F5FE2
:103090001F4F1A830983F7016181CE0101960E94B7
:1030A000E817C7010F900F90DF91CF911F910F91FB
:1030B000FF90EF900895FC0180819181009711F0BD
:1030C0000C94662C60E070E0CB0108950F931F9381
:1030D000CF93DF938C01EB01FC01808191810097FC
:1030E000E1F06881798161157105A9F04281538110
:1030F0002C813D814217530770F00E949A2F8C81DA
:103100009D81F801958384831D821C82DF91CF917C
:103110001F910F9108950E944B2E88819981F8018B
:10312000918380838A819B81938382838C819D811B
:1031300095838483198218821B821A82E5CFCF93EC
:10314000DF93EC0188819981009711F00E944B2E4A
:10315000198218821D821C821B821A82DF91CF91F4
:103160000895FC0180819181009711F00C944B2E01
:1031700008950F931F93CF93DF93EC01888199817A
:10318000009759F02A813B812617370730F081E0FC
:10319000DF91CF911F910F9108958B016F5F7F4F4A
:1031A0000E94D42E009759F0998388831B830A8349
:1031B0002C813D81232B59F7FC011082E8CF80E060
:1031C000E7CFEF92FF920F931F93CF93DF93EC0122
:1031D0007B018A01BA010E94B91881110BC0CE018E
:1031E0000E949F18CE01DF91CF911F910F91FF9008
:1031F000EF9008951D830C83B701888199810E9407
:103200009A2FF0CFFC011182108213821282158254
:10321000148250E040E063E273E00C94E118FB019B
:1032200001900020E9F73197AF01461B570B0C9432
:10323000E1180F931F93CF93DF93CDB7DEB7A1971C
:103240000FB6F894DEBF0FBECDBF8C01CB01BA0123
:10325000F8011182108213821282158214822AE0F0
:10326000AE014F5F5F4F0E94AD2CBE016F5F7F4F7D
:10327000C8010E940F19A1960FB6F894DEBF0FBEC9
:10328000CDBFDF91CF911F910F910895CF93DF9321
:1032900000D0CDB7DEB7FC011182108213821282FA
:1032A0001582148269831A82BE016F5F7F4F0E946C
:1032B0000F190F900F90DF91CF910895CF93DF9367
:1032C000EC01FB018617970749F060817181611558
:1032D000710541F0448155810E94E118CE01DF91D2
:1032E000CF9108950E949F18F9CF0F931F93CF930A
:1032F000DF9300D000D000D0CDB7DEB7609381035C
:10330000FC01248135812131310508F446C020912A
:103310000C01222391F11A8219821C821B821E82C7
:103320001D82BC01CE0101960E945E190D811E8195
:103330000F5F1F4FB801CE0101960E94B918882374
:1033400039F129813A818D819E8162E273E0820F99
:10335000931F0E949A2F1E830D83BE016F5F7F4FC4
:103360008BE098E00E945E19CE0101960E94B11890
:1033700081E080939C0310920C0126960FB6F8947E
:10338000DEBF0FBECDBFDF91CF911F910F9108958A
:10339000CE0101960E949F18E0CF76E0729FA001B7
:1033A000739F500D112420E630E0241B350B369519
:1033B0002795309396032093950370E070939403C0
:1033C000609393030E94D511D8CFCF92DF92EF92F2
:1033D000FF920F931F93CF93DF9300D0CDB7DEB74B
:1033E00080919B0383508A3008F0BDC060919703A1
:1033F000709198038091990390919A0324E630E0AC
:1034000040E050E00E94782D672B682B692B09F073
:103410009CC0C0907D03D0907E0323E0C21AD108E7
:103420000D2C000CEE08FF0885E2C816D104E1045B
:10343000F1040CF4A3C00E940E2CA70196012452A3
:103440003109410951090E940F2D6B017C0124E2D1
:10345000C20ED11CE11CF11CDA82C98264E070E06A
:10346000C6010E9430178823A1F220919B032350AC
:10347000330B220F331FF901E959FC4FD182C0826F
:1034800080917B0390917C030196BE016F5F7F4F1B
:10349000820F931F0E943418809166038F5F809380
:1034A0006603853608F449C0C0907D03D0907E0342
:1034B00084E1C81AD1080D2C000CEE08FF0825E2A3
:1034C000C216D104E104F1040CF45EC00E940E2C7B
:1034D000A701960124523109410951090E940F2D7B
:1034E0006B017C0124E2C20ED11CE11CF11CDA82CA
:1034F000C98265E170E0C6010E9430178823A1F2FD
:10350000D0927C03C0927B036BE773E082E190E092
:103510000E9434181092660310E000E0B801695967
:103520007C4F89819A810196800F911F0E943418E7
:103530000E5F1F4F0431110589F76091660380917A
:103540007B0390917C030E94012DE0919B03E3504B
:10355000FF0BEE0FFF1FE959FC4F67E973E0808115
:1035600091810E9401180F900F90DF91CF911F91D0
:103570000F91FF90EF90DF90CF90089554E2C52E09
:10358000D12CE12CF12C68CF94E2C92ED12CE12C66
:10359000F12CADCF8091970390919803A09199035E
:1035A000B0919A03892B8A2B8B2B71F082E39FE0D9
:1035B0000E94F813109297031092980310929903A7
:1035C00010929A030C94E5198FEB96E1F1CFE091FC
:1035D0009B0384E0E89FF0011124E75EFE4F4081E9
:1035E0005181628173818091970390919803A0919A
:1035F0009903B0919A0384179507A607B70780F43B
:103600000196A11DB11D8093970390939803A093F9
:103610009903B0939A03481759076A077B0731F457
:1036200084E29FE00E94F8130C94E5198FEB96E179
:10363000F9CF0F931F93CF93DF93CDB7DEB7A49746
:103640000FB6F894DEBF0FBECDBF8C01CE014996F8
:103650000E940219CE014F960E94021940919703D1
:10366000509198036091990370919A03D801149630
:103670008D919C911597452B462B472B09F435C10D
:10368000892B09F454C0ED91FC918081882309F4C1
:103690004EC01A8219821C821B821E821D82B801B2
:1036A000CE0101960E945E1960E0CE0101960E9453
:1036B0007519CE0101960E94B1180EE010E04091FC
:1036C0009703509198036091990370919A03CE01EA
:1036D00001960E941919BE016F5F7F4FCE01499676
:1036E0000E946618CE0101960E94B1188D8D9E8DA4
:1036F0008330910509F4C6C1E8F48130910509F4DD
:103700005AC1029709F479C1CE014F960E94B118AF
:10371000CE0149960E94B118A4960FB6F894DEBF68
:103720000FBECDBFDF91CF911F910F91089509E09A
:1037300010E0C5CF8530910509F499C208F40AC29A
:10374000069711F770E060E0CE0149960E940311E0
:10375000DC016C91CE0101960E944619BE016F5F9B
:103760007F4FCE014F960E946618CE0101960E94AF
:10377000B118CE014F960E945B18262F045F1F4F91
:1037800046E058E1B80181E090E00E94F41561E064
:1037900070E0CE0149960E940311FC016081CE01C8
:1037A00001960E944619BE016F5F7F4FCE014F9672
:1037B0000E946618CE0101960E94B118CE014F9664
:1037C0000E945B18262F46E058E1B80180E190E0A6
:1037D0000E94F41562E070E0CE0149960E94031148
:1037E000DC016C91CE0101960E944619BE016F5F0B
:1037F0007F4FCE014F960E946618CE0101960E941F
:10380000B118CE014F960E945B18262F46E058E172
:10381000B8018FE190E00E94F41563E070E0CE0102
:1038200049960E940311FC016081CE0101960E941D
:103830004619BE016F5F7F4FCE014F960E946618FA
:10384000CE0101960E94B118CE014F960E945B18DE
:10385000262F46E058E1B8018EE290E00E94F41570
:1038600064E070E0CE0149960E940311DC016C9186
:10387000CE0101960E944619BE016F5F7F4FCE01B7
:103880004F960E946618CE0101960E94B118CE0193
:103890004F960E945B18262F46E058E1B8018DE351
:1038A00090E00E94F41565E070E0CE0149960E9418
:1038B0000311FC016081CE0101960E944619BE01F0
:1038C0006F5F7F4FCE014F960E946618CE01019622
:1038D0000E94B118CE014F960E945B18262F46E039
:1038E00058E1B8018CE490E022C0892B19F1ED91E8
:1038F000FC9180818823F1F01A8219821C821B823C
:103900001E821D82B801CE0101960E945E1966E1F9
:10391000CE0101960E947519CE0101960E94B11840
:1039200020E041E95DE164E270E08EE190E00E9418
:10393000F415EACE87E090E0909396038093950388
:1039400080E190E0909394038093930384E293E06A
:103950000E9497178AE290E09093960380939503D4
:103960008CE190E0909394038093930380919B0368
:103970001C8A1B8A1E8A1D8A188E1F8A4AE0BE0175
:103980006F5F7F4F8250990B0E948D2CBE016F5F3D
:103990007F4FCE0143960E940F19CE0143960E949D
:1039A000D511CE0143960E94B11820E041E95DE1B6
:1039B0006AE270E0BACF70E060E0CE0149960E9402
:1039C0000311FC016081CE0101960E944619BE01DF
:1039D0006F5F7F4FCE014F960E946618CE01019611
:1039E0000E94B118CE014F960E945B18262F4CEC16
:1039F00057E0B8018FE190E09ACF70E060E0CE012F
:103A000049960E940311DC016C91CE0101960E943F
:103A10004619BE016F5F7F4FCE014F960E94661818
:103A2000CE0101960E94B118CE014F960E945B18FC
:103A3000262F4CEC57E0B8018FE090E00E94F4157F
:103A400061E070E0CE0149960E940311FC016081A3
:103A5000CE0101960E944619BE016F5F7F4FCE01D5
:103A60004F960E946618CE0101960E94B118CE01B1
:103A70004F960E945B18262F4CEC57E0B8018DE260
:103A800090E055CF70E060E0CE0149960E940311AE
:103A9000DC016C91CE0101960E944619BE016F5F58
:103AA0007F4FCE014F960E946618CE0101960E946C
:103AB000B118CE014F960E945B18262F4CEC57E0B0
:103AC000B80181E090E00E94F41561E070E0CE0161
:103AD00049960E940311FC016081CE0101960E946B
:103AE0004619BE016F5F7F4FCE014F960E94661848
:103AF000CE0101960E94B118CE014F960E945B182C
:103B0000262F4CEC57E0B8018FE190E00E94F415AD
:103B100062E070E0CE0149960E940311DC016C91D5
:103B2000CE0101960E944619BE016F5F7F4FCE0104
:103B30004F960E946618CE0101960E94B118CE01E0
:103B40004F960E945B18262F4CEC57E0B8018DE38E
:103B500090E0EDCE70E060E0CE0149960E94031146
:103B6000FC016081CE0101960E944619BE016F5F83
:103B70007F4FCE014F960E946618CE0101960E949B
:103B8000B118CE014F960E945B18262F0A5F1F4F77
:103B90004EE753E0B80182E090E00E94F41561E046
:103BA00070E0CE0149960E940311DC016C91CE01B8
:103BB00001960E944619BE016F5F7F4FCE014F965E
:103BC0000E946618CE0101960E94B118CE014F9650
:103BD0000E945B18262F4EE753E0B80188E190E081
:103BE0000E94F41562E070E0CE0149960E94031134
:103BF000FC016081CE0101960E944619BE016F5FF3
:103C00007F4FCE014F960E946618CE0101960E940A
:103C1000B118CE014F960E945B18262F4EE753E055
:103C2000B8018EE290E00E94F41563E070E0CE01EE
:103C300049960E940311DC016C91CE0101960E940D
:103C40004619BE016F5F7F4FCE014F960E946618E6
:103C5000CE0101960E94B118CE014F960E945B18CA
:103C6000262F4EE753E0B80184E490E060CE70E088
:103C700060E0CE0149960E940311FC016081CE01F3
:103C800001960E944619BE016F5F7F4FCE014F968D
:103C90000E946618CE0101960E94B118CE014F967F
:103CA0000E945B18262F065F1F4F4CEA50E0B801B8
:103CB00081E090E00E94F41561E070E0CE01499649
:103CC0000E940311DC016C91CE0101960E944619FD
:103CD000BE016F5F7F4FCE014F960E946618CE01E6
:103CE00001960E94B118CE014F960E945B18262FB4
:103CF0004CEA50E0B80183E190E00E94F41562E0E4
:103D000070E0CE0149960E940311FC016081CE0152
:103D100001960E944619BE016F5F7F4FCE014F96FC
:103D20000E946618CE0101960E94B118CE014F96EE
:103D30000E945B18262F4CEA50E0B80185E290E023
:103D40000E94F41563E070E0CE0149960E940311D1
:103D5000DC016C91CE0101960E944619BE016F5F95
:103D60007F4FCE014F960E946618CE0101960E94A9
:103D7000B118CE014F960E945B18262F4CEA50E0F6
:103D8000B80187E390E00E94F41564E070E0CE0192
:103D900049960E940311FC016081CE0101960E94A8
:103DA0004619BE016F5F7F4FCE014F960E94661885
:103DB000CE0101960E94B118CE014F960E945B1869
:103DC000262F4CEA50E0B80189E490E0B0CD1F9274
:103DD0000F920FB60F9211248F939F938091E10061
:103DE0009091E100937F9093E10083FF0FC01092C8
:103DF000E90091E09093EB001092EC0092E3909335
:103E0000ED001092AA0398E09093F00082FF22C088
:103E100093E09093E9009091F200992319F09AE3CE
:103E20009093E80090916203992341F0909162038E
:103E3000915090936203911101C05D9A9091A903F2
:103E4000992341F09091A90391509093A903911166
:103E500001C0289A84FF18C08091E2008E7E8160A4
:103E60008093E2008091E1008F7E8093E100809159
:103E700064038E7E8061809364039F918F910F9085
:103E80000FBE0F901F90189580FFF7CF8091E20032
:103E90008E7E80618093E2008091E1008E7E80932F
:103EA000E100809164038E7E8160E5CF1F920F92C6
:103EB0000FB60F921124CF92DF92EF92FF920F93E1
:103EC0001F932F933F934F935F936F937F938F93A2
:103ED0009F93AF93BF93EF93FF93CF93DF93CDB7B0
:103EE000DEB76C97DEBFCDBF1092E9008091E8008D
:103EF00083FF25C068E0CE0145960E949B1182EFAA
:103F00008093E8008D8987FF39C09091E80090FF89
:103F1000FCCF982F907609F034C19E894F89588D37
:103F20002F89F88C911131C0803861F5809165033B
:103F30008093F1001092F1008EEF8093E8006C9670
:103F40000FB6F894DEBF0FBECDBFDF91CF91FF91CA
:103F5000EF91BF91AF919F918F917F916F915F9101
:103F60004F913F912F911F910F91FF90EF90DF9014
:103F7000CF900F900FBE0F901F9018959EEF9093CB
:103F8000E800C7CF1092F100D5CF913059F48111DC
:103F9000D3CF4130510581F6809165038D7F8093A9
:103FA0006503CACF933049F48111C6CF4130510522
:103FB00019F6809165038260F2CF953041F48091CB
:103FC000E80080FFFCCF20682093E300B5CF963057
:103FD00009F0A9C00B8D1C8D22E01092E90010920F
:103FE000600310925F03F2122EC010925E031092D3
:103FF0005D030E946A111F8299E09983FA8291E021
:104000009E8390EA98879AEF998720915F03309179
:104010006003275F3F4F3C832B838D831092E90021
:104020001092600310925F0310935E0300935D0390
:1040300049E050E0BE016F5F7F4F80E00E94441175
:104040000E946A1179CF10935E0300935D030E9472
:10405000EF10DC0112960D911C910115110509F468
:1040600051C1D801ED91FC910480F581E02DBE0194
:104070006B5E7F4FC8010995009709F03EC1F801BA
:1040800000851185EACFF3E0FF120EC08F898823E7
:1040900009F440C0823061F440E867E080EA94E1CE
:1040A0000E943322811148CF81E28093EB0047CFF9
:1040B000813029F440E86BE084E994E1F1CF83306A
:1040C00099F70E94EF10DC011296ED90FC908E01A2
:1040D0000F5F1F4F6801E114F10479F0D701ED91F2
:1040E000FC910680F781E02DB801C7010995080F02
:1040F000111DF701E084F184EECFD8011C92F60186
:1041000001900020E9F73197BF016C197D0940E06B
:10411000C601C6CF6EE774E1FB01449150E080E830
:104120000E94441109CF973009F4BECF983021F492
:1041300081E08093F10000CF993009F0FDCE8370CB
:1041400009F0B2CFEEE4F1E081E031E096E32191B5
:10415000222371F08093E9003093EB00DF01119787
:104160002C912093EC009093ED008F5F873079F7CE
:104170008EE78093EA001092EA008F898093AA0369
:10418000DBCE8B8D9C8D1092E90010926003109213
:104190005F0390935E0380935D03898D811192C0CC
:1041A0008E899D89913A49F4813209F07DCF47E0AB
:1041B00050E064E071E080E0B3CF913209F074CF59
:1041C000833269F48F89988DB0E0A0E0809300017C
:1041D00090930101A0930201B0930301ADCE803210
:1041E00069F48091E80082FFFCCF67E084E091E011
:1041F0000E949B118BEF8093E8009ECE823209F0E3
:104200009BCE8F8980930B01EEEFFFE78591949110
:104210008B3F9C4D51F1E0E0F8E0809104019091DA
:104220000501A0910601B0910701803B9440A105D2
:10423000B105F1F480910B0180FD1AC0EE3F8AE0D8
:10424000F80789F587E797E791838083809160007D
:104250008093610388E19BE00FB6F894A895809362
:1042600060000FBE9093600067CEEEEFFAE0D5CF0E
:10427000808191818737974709F05ECEA89580911C
:10428000600088618093600080916103809360008A
:10429000EE3F2AE0F20789F08091FE0A9091FF0A32
:1042A0009183808349CE808191818737980751F22D
:1042B0009093FF0A8093FE0AC5CF1092FF0A1092D6
:1042C000FE0A3ACE0E94EF10DC0112960D911C916D
:1042D0000115110509F4E8CED801ED91FC9101908A
:1042E000F081E02DBE016B5E7F4FC8010995811101
:1042F00023CEF80100851185EBCF181619060CF4B2
:104300001BCED2CEF1E0FF12BECE62E874E104CF44
:104310001F920F920FB60F9211242F933F938F93FA
:104320009F93AF93BF938091850390918603A09153
:104330008703B09188033091580323E0230F2D3772
:1043400058F50196A11DB11D209358038093850354
:1043500090938603A0938703B093880380915903B9
:1043600090915A03A0915B03B0915C030196A11D4B
:10437000B11D8093590390935A03A0935B03B093AC
:104380005C03BF91AF919F918F913F912F910F90BF
:104390000FBE0F901F90189526E8230F0296A11DBF
:1043A000B11DD2CF1F920F920FB60F9211242F93EF
:1043B0003F934F935F936F937F938F939F93AF93AD
:1043C000BF93EF93FF938091540390915503A09175
:1043D0005603B0915703892B8A2B8B2B09F440C0CD
:1043E0008091530381110BC088B190E4892788B96B
:1043F00080915203882319F088B1805888B9809140
:10440000540390915503A0915603B0915703181689
:1044100019061A061B069CF48091540390915503CB
:10442000A0915603B09157030197A109B109809358
:10443000540390935503A0935603B0935703FF91F1
:10444000EF91BF91AF919F918F917F916F915F910C
:104450004F913F912F910F900FBE0F901F90189585
:104460000E945013ECCFEF92FF920F931F93CF93C4
:10447000DF93F82E192FE62E042F81E0860F880F88
:104480000E94161183E00E941611CF2DD12FEC0E41
:10449000FD2EF11CCE15DF05B9F007FF13C0FE019C
:1044A00084910E941611182F80E00E94161181231A
:1044B00021968111EFCFDF91CF911F910F91FF9046
:1044C000EF9008958881EDCF81E0F5CFEBEAF7E03A
:1044D0001382128288EE93E0A0E0B0E0848395839B
:1044E000A683B78388E093E0918380838FEF9FEF6B
:1044F00095878487E1E1F8E0138212828AE193E0F4
:104500009183808382EA90E190930A08809309085E
:1045100080E090E8909308088093070846983E9AB8
:1045200047983F9A8BE098E00C940219CF93DF9361
:10453000CDB7DEB764970FB6F894DEBF0FBECDBF20
:10454000789484B5826084BD84B5816084BD85B56E
:10455000826085BD85B5816085BD80916E0081607A
:1045600080936E0010928100809181008260809320
:104570008100809181008160809381008091800022
:10458000816080938000809191008260809391008F
:104590008091910081608093910080919000816072
:1045A000809390008091C10084608093C1008091CD
:1045B000C10082608093C1008091C10081608093BE
:1045C000C1008091C30081608093C3008091C000CE
:1045D00082608093C0008091C20081608093C2009D
:1045E00080917A00846080937A0080917A00826062
:1045F00080937A0080917A00816080937A00809124
:104600007A00806880937A001092AA031092650362
:10461000109264038091D70081608093D70080EA74
:104620008093D80089B5806189BD89B5826089BDD4
:1046300009B400FEFDCF61E070E080E090E00E94F0
:1046400084128091D8008F7C80618093D800809103
:10465000E000807F8093E0008091E1008E7E809377
:10466000E1008DE08093E200559A209A8FEF9FEF52
:104670009093B8078093B70780E094E090937E030F
:1046800080937D0319821A821B821C8280E190E054
:104690000E94A417803609F4A5C060E081E190E093
:1046A0000E94012D84E190E090937C0380937B0332
:1046B0006BE773E082E190E00E94341860E0809143
:1046C0007B0390917C030E94012DE7E6EE2EE3E050
:1046D000FE2E10E000E080917B0390917C039C0112
:1046E0002B5E3F4FA801440F551F240F351FF701C4
:1046F000318320830196B701800F911F0E943418E7
:10470000BE016F5F7F4FF701819191917F010E9400
:1047100001180E5F1F4F04311105E9F660E680E1D4
:1047200090E00E94012D81EC80937C0085B1806F28
:1047300085B984B1877E84B984B1876E84B95E9A65
:104740005F988AB1806D8AB9769A6E9881B3806FCE
:1047500081BB899880B38D7080BB80E58CBD81E082
:104760008DBD85E090E00E942B165F9A85E090E079
:104770000E942B165E985C98E8E5F5E185E695E1E8
:1047800024912EBD00000DB407FEFDCF31968E178B
:104790009F07B1F75C9A81E880936400809165007F
:1047A0008160809365000E942D1780E80E94221787
:1047B00002E010E0882309F43FC05C9885EA8EBDD2
:1047C00000000DB407FEFDCF5C9A2E982F982D980F
:1047D0008091640080628093640081E083BF88954B
:1047E00013BEFCCF81E190E00E94A41780939B034D
:1047F0006BE773E082E190E00E94A61780917B0353
:1048000090917C030E94F92C8093660310E000E0F5
:10481000B80169597C4F80917B0390917C0301968C
:10482000800F911F0E94A6170E5F1F4F04311105C4
:1048300079F70E94BA1777CF84E00E942217882365
:1048400009F440C02D9884E80E9422178823C1F003
:104850000E94291688EC90E00E942B162F981A834C
:1048600009836FEFCE0101960E94E81784EF91E073
:104870000E942B162F9A84E80E9422178111FBCFE9
:1048800084E10E9422178823C1F00E94291688EC37
:1048900090E00E942B162E981A83098360E0CE01C7
:1048A00001960E94E81784EF91E00E942B162E9A41
:1048B00084E10E9422178111FBCF88EC90E00E94D6
:1048C0002B16BACF0E94291682E090E00E94A4170E
:1048D000882309F4B8C20E943D1681E090E00E944E
:1048E000A41781FF14C0F82FF4703F2E82FD2E987C
:1048F00001EF1FEF68E0A62EB12C80E40E94221782
:10490000882309F4A3C22E9A2F9A0E94291682E3C3
:1049100090E00E942B160E9430168111F8CF8091F2
:1049200064008E7F8093640080917A00806480931D
:104930007A0080917A0086FDFCCF0091780010917A
:1049400079000E945F12AB01BC01C801B0E0A0E099
:10495000DC01992788278C019D01040F151F261F54
:10496000371FC901B80120916400216020936400C1
:10497000611571058105910511F00E945D2C0E9461
:10498000431620E045E655E160E170E084E190E007
:104990000E94F4150E942D1788EE93E00E942B16BA
:1049A0000E9443162FB7F894809185039091860357
:1049B000A0918703B09188032FBF80938E039093BB
:1049C0008F03A0939003B09391038FB7F894409115
:1049D00085035091860360918703709188038FBF90
:1049E00011E1A12EB12C0E94431680918003809387
:1049F0007F030E9430168093800380919C0388235C
:104A000009F45DC080918403853108F46BC3809103
:104A1000820390918303863091050CF0DBC20196EE
:104A20009093830380938203109284038091810387
:104A300090E02091820330918303319521953109D3
:104A4000309396032093950390939403809393035C
:104A5000CE0101960E94021900910F0810911008D2
:104A60000115110509F10131110510F001E110E006
:104A7000E0910B08F0910C08E00FF11FF08010821C
:104A800060910B0870910C08CE01019661157105BB
:104A900009F42CC30E940F1980910B0890910C0807
:104AA000080F191FF801F082CE0101960E94D5115E
:104AB000CE0101960E94B11881E080930E0120E0A2
:104AC00042EF5FE170E060E080E690E00E94F41564
:104AD00080E20E9417178823D9F080919B038150B0
:104AE0008D3008F006C380939B030E9454171092E8
:104AF0009C0311E010930C01BA82A98260919B0380
:104B0000CE0101960E94E8170E94BA1710930E0179
:104B100080E40E9417178823D9F080919B038F5F50
:104B20008D3008F0E8C280939B030E9454171092C6
:104B30009C0311E010930C01BA82A98260919B033F
:104B4000CE0101960E94E8170E94BA1710930E0139
:104B500080E80E9417178823A1F080919203882390
:104B600009F4CCC20E9438166091920382E090E072
:104B70009A838983CE0101960E94E81781E0809391
:104B80000E0180E10E941717882329F00E94E71A7E
:104B900081E080930E0188E00E941717882329F096
:104BA0000E94E71A81E080930E0184E00E941717AB
:104BB0008823C1F02FB7F8948091850390918603E4
:104BC000A0918703B09188032FBF80938E039093A9
:104BD0008F03A0939003B093910381E080938D03A2
:104BE00080930E0180E20E940C17882319F081E067
:104BF00080930E0180E40E940C17882319F081E055
:104C000080930E0180E80E940C17882319F081E040
:104C100080930E0180E10E940C17882319F081E037
:104C200080930E0188E00E940C17882319F081E020
:104C300080930E0184E00E940C17882379F1809103
:104C4000970390919803A0919903B0919A03892BAF
:104C50008A2B8B2B09F463C285EC96E10E94F81332
:104C60008091970390919803A0919903B0919A0332
:104C70000097A105B10559F00197A109B1098093E9
:104C8000970390939803A0939903B0939A030E947B
:104C9000E51910928D0381E080930E0180E20E945D
:104CA0002217882349F020E043ED57E165E170E0E9
:104CB00080E690E00E94F41580E40E942217882389
:104CC00049F020E042EB57E165E170E080E690E0DA
:104CD0000E94F41580E80E942217882379F08091C1
:104CE000920320E041E957E1811102C040E757E11A
:104CF0006FE170E080E690E00E94F41580E10E9490
:104D00002217882349F020E04FE457E167E270E082
:104D100080E690E00E94F41588E00E942217882324
:104D200049F020E04EE257E168E370E080E690E071
:104D30000E94F41584E00E942217882309F467C0BA
:104D400080918D03882309F462C020E04DE057E193
:104D500060E370E080E690E00E94F4158091970394
:104D600090919803A0919903B0919A03892B8A2B73
:104D70008B2B09F44CC08FB7F894C0908503D0906A
:104D80008603E0908703F09088038FBFC092890369
:104D9000D0928A03E0928B03F0928C0380918E0371
:104DA00090918F03A0919003B0919103C81AD90AF2
:104DB000EA0AFB0AFEE7CF16D104E104F104C0F0D1
:104DC00020E04CEE56E160E370E080E690E00E9467
:104DD000F4150BEFC016D104E104F10448F020E013
:104DE0004BEC56E160E370E080E690E00E94F41541
:104DF00080919B0383508A3008F094C119EEC1164C
:104E000013E0D106E104F10410F00E94CA1A809167
:104E10000E01882309F4ADC4E0919B03ED3008F046
:104E200007C2F0E0EA5EF84D0C94A92D9B283629C4
:104E3000B129812B952B992B9D2BA12BA52BA92B30
:104E4000AD2BB12BB52B0E94381647CD332029F05E
:104E50000430110511F42E9A2F9881E00E94A510BC
:104E6000980117FF04C022273327201B310B27701E
:104E70003327C80117FD079653E0959587955A95F6
:104E8000E1F717FF05C00197A501421B530B9A01DB
:104E9000BC017695762F66277795679565557C4F8B
:104EA000F12CE12C2501421A530A8E3F5FEF950742
:104EB00009F43EC0DB0150E040E0F701E855FB4E4D
:104EC0004F013B01F0E86F0E711C8F3F980781F096
:104ED000F401E40FF51FE491022E01C0EE0F0A94D5
:104EE000EAF75496FC915497EF2B5496EC93549711
:104EF00021153105B9F0F401E40FF51F2490630189
:104F0000C40ED51EE22DF0E0042C02C0F595E79505
:104F10000A94E2F7FC8BEB8BF6012488FB892F2A9D
:104F2000F601248A4F5F5F4F11964835510569F6A7
:104F30000196F8E5EF0EF11C60587F4F40EBE41648
:104F4000F10409F0B2CF0E942D178FE090E00E948B
:104F50002B160F5F1F4F0931110509F0CECC3320FE
:104F600011F02F9A2D9880E991E00E942B160E9453
:104F7000291681E090E00E94A41780FFC8CC8AE047
:104F800090E00E94A4179FEF980F9E3F08F0BFCCBF
:104F900022E330E0309396032093950328E330E03A
:104FA00030939403209393030BE010E0682F81E18A
:104FB00098E00E945816C8010E94A4170F5F1F4F67
:104FC0000131110599F70E942D1788EE93E00E9498
:104FD0002B169DCCC0900F08D0901008C114D1049E
:104FE00061F0E0910B08F0910C08712C309709F0FA
:104FF0007080EE24E394F12C06C0F12CE12C712C8E
:10500000CC24C394D12CCE0107960E9402190091A2
:105010000F0810911008E016F10608F5C016D10629
:1050200008F48601E0910B08F0910C08E00FF11FE5
:10503000D080108260910B0870910C086E0D7F1D5E
:10504000CE01079661157105E1F10E940F1980915B
:105050000B0890910C08080F191FF801D0821A82D2
:1050600019821C821B821E821D82BE01695F7F4FD6
:10507000CE0101960E945E197D861E860D811E81DD
:105080000F5F1F4FB801CE0101960E94B918811120
:105090001BC0CE0101960E949F18BE016F5F7F4F1B
:1050A0008BE098E00E945E19CE0101960E94B11833
:1050B000CE0107960E94B1181092830310928203CA
:1050C000B3CC0E949F18C3CF29813A818D819E81E4
:1050D000BE01635F7F4F820F931F0E949A2F1E8332
:1050E0000D83DBCF8F5F80938403A0CC0E949F1839
:1050F000D3CC8CE0F8CC10929B0317CD0E943D16C8
:105100006091920382E090E09A838983CE010196B8
:105110000E94E8178FEB96E10E94F8132FCD8FEBDA
:1051200096E19CCD25EFC21621E0D206E104F10400
:1051300008F46DCE6ACE8091970390919803A09168
:105140009903B0919A0320E00797A105B10509F0F2
:1051500043C046E65EE169E070E080E690E00E94D0
:10516000F415FEEFEF2EFDE1FF2E80919703909155
:105170009803A0919903B0919A03892B8A2B8B2BCA
:10518000C1F110E000E0412C512C32014394809198
:10519000970390919803A0919903B0919A03841575
:1051A0009505A605B70508F443C020E0A70168E00F
:1051B00070E0C80135E04316510424F068E270E065
:1051C000855591090E94F4154FEF441A540A640A58
:1051D000740A085E1F4FDBCF45E45EE169E070E0D2
:1051E00080E690E00E94F415E7EBEE2EEDE1FE2E56
:1051F000BCCF82E080930D018BE090E0909396030A
:105200008093950385E190E09093940380939303BA
:1052100082E393E00E94971781E080930D0120E0E4
:1052200041E95DE16AE270E08EE190E00E94F415F0
:105230008091920381110EC080E80E942217811193
:1052400009C020E047E85EE16FE170E080E690E0B1
:105250000E94F4150E942D1710920E0180E090E03C
:10526000892B09F4C0CB0E940000BACB8091970330
:1052700090919803A0919903B0919A0320E04597EB
:10528000A105B10509F040C040E75DE169E070E0CB
:1052900080E690E00E94F41562E3E62E6DE1F62EC2
:1052A0008091970390919803A0919903B0919A03EC
:1052B000892B8A2B8B2B09F442C010E000E0412C93
:1052C000512C320143948091970390919803A091BF
:1052D0009903B0919A0384159505A605B70508F4BE
:1052E000A7CFC20120E0A70189309105D4F461E085
:1052F00070E0C8010E94F4155FEF451A550A650A6F
:10530000750A045F1F4FDFCF4FE45DE169E070E095
:1053100080E690E00E94F41555E1E52E5DE1F52E62
:10532000BFCF409734F465E170E0C8018A55910918
:10533000E1CF69E270E0C801885A9109DBCF82E0D1
:1053400080930D0185E090E0909396038093950300
:1053500085E190E0909394038093930389E393E035
:1053600059CFCE010D960E940219CE0107960E94D8
:10537000021920E043E15AE170E060E090E080E053
:105380000E94F4158091970390919803A09199033E
:10539000B0919A0320E08C369105A105B10509F082
:1053A0005EC042EF59E169E070E080E690E00E9463
:1053B000F41520E04BEE59E16EE170E080E190E001
:1053C0000E94F415409197035091980360919903BE
:1053D00070919A03411551056105710509F446C0A4
:1053E000CE0101960E941919BE016F5F7F4FCE0159
:1053F0000D960E946618CE0101960E94B118898907
:105400009A898230910509F491C08330910509F49D
:10541000D4C0019709F043C070E060E0CE010D9662
:105420000E940311FC016081CE0101960E94461981
:10543000BE016F5F7F4FCE0107960E946618CE01B6
:1054400001960E94B118CE0107960E945B18262F84
:1054500046E058E165E170E089E290E01EC04AEC68
:1054600059E169E070E080E690E0AACF89E190E040
:10547000909396038093950386E190E09093940334
:105480008093930381E493E00E94971720E041E921
:105490005DE164E270E080E290E00E94F4158091AA
:1054A000970390919803A0919903B0919A032CE2ED
:1054B000422E22E0522E34E5232E31E0332E8C365C
:1054C0009105A105B10508F4E3C080E090E0DC019E
:1054D0003C014D01FFEF6F1A7F0A8F0A9F0A40912E
:1054E0009703509198036091990370919A038417E0
:1054F0009507A607B70708F0FBC0F201619171910B
:105500002F01F101819191911F01E4EFF7E10491E5
:10551000E5EFF7E1E490CC24C3942AEF37E146EFBE
:1055200057E10E940B14D401C301D2CF70E060E0B8
:10553000CE010D960E940311FC016081CE010196FF
:105540000E944619BE016F5F7F4FCE0107960E94F1
:105550006618CE0101960E94B118CE0107960E94EE
:105560005B18262F46E058E165E170E081E290E0AB
:105570000E94F41561E070E0CE010D960E940311C7
:10558000FC016081CE0101960E944619BE016F5F49
:105590007F4FCE0107960E946618CE0101960E94A9
:1055A000B118CE0107960E945B18262F46E058E1FD
:1055B00065E170E080E390E070CF70E060E0CE01E4
:1055C0000D960E940311FC016081CE0101960E949C
:1055D0004619BE016F5F7F4FCE0107960E94661885
:1055E000CE0101960E94B118CE0107960E945B1869
:1055F000262F46E058E165E170E088E190E00E94E6
:10560000F41561E070E0CE010D960E940311FC01DB
:105610006081CE0101960E944619BE016F5F7F4FE7
:10562000CE0107960E946618CE0101960E94B1181D
:10563000CE0107960E945B18262F46E058E165E1EF
:1056400070E087E290E00E94F41562E070E0CE0125
:105650000D960E940311FC016081CE0101960E940B
:105660004619BE016F5F7F4FCE0107960E946618F4
:10567000CE0101960E94B118CE0107960E945B18D8
:10568000262F46E058E165E170E086E390E005CF23
:1056900080E090E0DC013C014D01FFEF6F1A7F0AD2
:1056A0008F0A9F0A40919703509198036091990344
:1056B00070919A0384179507A607B707C8F4F201FB
:1056C000619171912F01F101819191911F01E0E0B0
:1056D000F8E10491E1E0F8E1E490CC24C3942AEFEE
:1056E00037E142E058E10E940B14D401C301D3CF4B
:1056F000CE0107960E94B118CE010D960E94B118F6
:1057000097CD20E041ED5FE169E070E080E690E058
:105710000E94F415CE0101960E940219CE01019655
:105720000E94191BCE010196E9CF20E040EB5FE11A
:10573000EBCF20E04FE85FE1E7CF20E04EE65FE10E
:10574000E3CF20E04DE45FE1DFCF20E04CE25FE11A
:10575000DBCF20E04BE05FE1D7CF20E04AEE5EE117
:10576000D3CF20E049EC5EE1CFCF20E048EA5EE114
:10577000CBCF81E083BF889513BE70CD8BE098E0DE
:105780000C94B1188F929F92AF92BF92CF92DF92FA
:10579000EF92FF92CF93DF93EC01688179818A8148
:1057A0009B81611571058105910521F464E279ED14
:1057B0008BE597E02DE133EF41E050E00E940F2DA3
:1057C00049015A019B01AC01A7EAB1E40E942E2DC8
:1057D0006B017C01ACEEB4EFA50194010E943C2D5D
:1057E000C60ED71EE81EF91EF7FE06C081E0C81AD5
:1057F000D108E10880E8F80AC882D982EA82FB82EF
:10580000C701B6019F77DF91CF91FF90EF90DF90B6
:10581000CF90BF90AF909F908F9008958F929F925E
:10582000AF92BF92CF92DF92EF92FF9260910F0101
:105830007091100180911101909112016115710513
:105840008105910521F464E279ED8BE597E02DE186
:1058500033EF41E050E00E940F2D49015A019B01B6
:10586000AC01A7EAB1E40E942E2D6B017C01ACEEE5
:10587000B4EFA50194010E943C2DC60ED71EE81E70
:10588000F91EF7FE06C081E0C81AD108E10880E8D9
:10589000F80AC0920F01D0921001E0921101F0922B
:1058A0001201C701B6019F77FF90EF90DF90CF9074
:1058B000BF90AF909F908F90089560930F01709369
:1058C0001001809311019093120108951F93FC0120
:1058D00099278827BC01E89411911032E9F3193017
:1058E00010F01E30C8F31B3251F01D3249F4689499
:1058F00006C00E94982C610F711D811D911D119190
:1059000010531A30B0F33EF49095809570956195E0
:105910007F4F8F4F9F4F1F910895BB274A3031F41F
:10592000992322F4BDE2909581959F4F0C94D02C41
:10593000592F482F372F262F660F771F881F991F43
:10594000660F771F881F991F620F731F841F951F93
:10595000660F771F881F991F0895BB27FA01A62F8E
:105960006217710581059105330B30FB66F0AA279C
:10597000660F771F881F991FAA1FA21710F0A21B7E
:1059800063953850A9F7A05DAA3308F0A95DA193EB
:1059900036F7B111B1931082CA010C94E92CBB27E0
:1059A000FB015527AA27880F991FAA1FA41710F0DB
:1059B000A41B83955051B9F7A05DAA3308F0A95DE7
:1059C000A193009779F7B111B1931192CB010C9487
:1059D000E92CDC01FC01672F71917723E1F7329705
:1059E00004C07C916D9370836291AE17BF07C8F3BA
:1059F0000895F999FECF92BD81BDF89A992780B597
:105A00000895262FF999FECF1FBA92BD81BD20BD02
:105A10000FB6F894FA9AF99A0FBE01960895052EDA
:105A200097FB1EF400940E94262D57FD07D00E947C
:105A3000782D07FC03D04EF40C94262D50954095FC
:105A4000309521953F4F4F4F5F4F0895909580952A
:105A5000709561957F4F8F4F9F4F08950E949A2DAB
:105A6000A59F900DB49F900DA49F800D911D1124B2
:105A70000895B7FF0C942E2D0E942E2D821B930BA0
:105A800008952F923F924F925F926F927F928F92E2
:105A90009F92AF92BF92CF92DF92EF92FF920F93BD
:105AA0001F93CF93DF93CDB7DEB7CA1BDB0B0FB6C7
:105AB000F894DEBF0FBECDBF09942A883988488884
:105AC0005F846E847D848C849B84AA84B984C8841A
:105AD000DF80EE80FD800C811B81AA81B981CE0F11
