:100000000C9432100C945A100C945A100C945A10F0
:100010000C945A100C945A100C945A100C945A10B8
:100020000C945A100C945A100C94831E0C94F21ECB
:100030000C945A100C945A100C945A100C945A1098
:100040000C945A100C945A100C945A100C945A1088
:100050000C945A100C945A100C945A100C9424219D
:100060000C945A100C945A100C945A100C945A1068
:100070000C945A100C945A100C945A100C945A1058
:100080000C946E210C945A100C945A100C945A1023
:100090000C945A100C945A100C945A100C945A1038
:1000A0000C945A100C945A100C945A10121D000003
:1000B00080E030081C1E3F3F7EFCF8F0E08000002E
:1000C000F8FFFF010000000000000001031FFFFF18
:1000D000FE00073FFFFFF8F0C0808000000080E0D6
:1000E0007F1F03000000000103070F0F1F0F0E0604
:1000F00003000000000000000000180C1EFFFFFEBF
:10010000F80000000000000000000000000000FFF8
:10011000FFFFFF00000000000000000000000000E2
:1001200000FFFFFFFF0000000000000000000000D3
:10013000000003070F1F1F0E060301000000000050
:10014000C0E0F0F8FC7E3F1E0E0418F8F0E0C0009E
:100150000000000301000000000080E0F8FF7F3F86
:10016000070000000080C060309C8E8F87838180F4
:100170000000000000181E0F0E0F07070707070FEB
:100180000F1F1F0F030200002030F87C3E1F0F06D8
:100190000604FCF8F0F00000000000000020303001
:1001A00030787CFFCFCF830100000060F0F8F0E0F2
:1001B000C0800000000003FFFFFFFE7C0000000184
:1001C00003070F1F1F0E0C0C0607030101000000A0
:1001D000000000008060101CFEFFFEFC000000001C
:1001E000008060100C0300000000FFFFFFFF000014
:1001F000000000070F0F0F0F0F0F0F0FFFFFFFFF84
:100200000F0F0F0F00000000000000000002070F9A
:100210001F1F0E0603020000000000E01E1E1E1E2F
:100220001E1E1E1E1E1E020000000000FC43603049
:1002300010183C3E7EFCFCF8E0C000000081E0E0CD
:10024000C08080000000000003FFFF3F00000101AC
:100250000303070F0F1F1E0E0C0603010000000012
:1002600000000080E070080C1E1F3E3EFC7C381031
:100270000000E0FCFFFF83404020103878FCFCF8D1
:10028000F0C000001F7FFFFFF8E0C080000000000A
:1002900081FF7F0F000000000103070F0F1F1F0EDB
:1002A0000602010000000000C0703C1E1E1E1E1E43
:1002B0001E1E9EDE7E1E0E06000100000000008055
:1002C000E0F0FC1E0700000000000000000000F04D
:1002D000FEFFFF1F00000000000000000000000003
:1002E0001F0F0F0F070000000000000000000000BB
:1002F000C0F0080C0E0F0F0F1F1F3FFEFCF8000090
:10030000000E3F7FFC7CFCF8F8F8F8F8FEF3F1E013
:10031000800000F8FEF3C080800000000000018132
:10032000C37F1F00000103070F0F1F1F1F1F0F07B1
:1003300003010000000000C0E030080C0E1E3F7EEC
:10034000FEFCF8F8E0C000003FFFFFF8E0C080804E
:1003500080C040613FFFFFFFFE00000003C3E7C70E
:10036000838101000080F07F3F0F01000000030344
:1003700007070F1F1F0E06030000000000001624D1
:1003800000000000C0E030383C7E7FFFFEFCFCF83F
:10039000F0C080000000C0F8FEFF07000000000071
:1003A000000001030F3FFFFFFFFEF000FFFFFFFF14
:1003B000F0800000000000000000000001FFFFFFCF
:1003C0003F0000071F3FFFFFFEFCF8F0E0C0C080C9
:1003D000C0E03C1F07010000000000000001010315
:1003E00007070F07070301000000000000000000DE
:1003F00000002010183CFEFFFEFCF800000000008A
:10040000000000000000000000000000FFFFFFFFF0
:10041000FF000000000000000000000000000000DD
:100420000000FFFFFFFFFF000000000000000000D1
:1004300000000000000080C0FFFFFFFFFFC08080C1
:10044000C0400000000000000000000000010103A7
:10045000070F07030301000000000000000080C038
:10046000E0F0F8FCFE7F3F1E0C0838F0E0C0C080D2
:100470000000000103070F07030100000000000057
:10048000E0FFFFFFFF3F0000000000000000000051
:10049000C0E0F0F87E3F1F0F0703000000000000DF
:1004A000C0F0F8CCCEE7E3E1E0E0E0E0E0E0E0C07F
:1004B000C0C080000C0F07070303030303030303FB
:1004C000030707070F0703000000000040E0F0F8F3
:1004D000FC7E3F3F1E0E040CF8F8F0F0E0E0000058
:1004E00000000000010100808080C0E0F0FCFFFF00
:1004F0007F3F0F0300000000000000010101010325
:100500000303070F7EFEFCFCF8F0C000081C3E7FD2
:10051000FEFCF8F0E0C080800000C0FFFFFF7F3FDE
:100520001F0000000000000103070F0F070703036F
:100530000301010000000000000000000000008036
:1005400060103CFEFFFEFEF800000000000000000E
:100550008060100C0300000000FFFFFFFFFF0000A1
:10056000000000007CFBF8F8F8F8F8F8F8F8F8FF5D
:10057000FFFFFFFFF8F8F8F8F800000000000000A7
:1005800000000000C0FFFFFFFFFFC08080C0000030
:1005900000000000000000000001010303070F0736
:1005A0000301010000000000000000E03E3E3E3E6E
:1005B0003E3E3E3E3E3E3E3E0E000000000000003D
:1005C000F80F008080C0E0F0F0F8F8F0E0C08000A4
:1005D00000000000100C07060301000000010103E9
:1005E000070F7FFFFFFFFC00004070F8FCF8F8F0F9
:1005F000E0E0C0C080000080E07F3F1F03000000FB
:10060000000000010303070F0F07070303010000A9
:10061000000000000000000080C070181C3E3F7FFA
:10062000FEFCFCF8F8702000000000F0FCFF1F0149
:100630000000000080C0C0E0F1E1E0C080000000E8
:10064000FFFFFFFF88040402010101010303070FFC
:100650003FFFFFFFFC00010F3F7FFFFEFCF8F0E0D3
:10066000C0C0808080C0703F1F07010000000000F4
:1006700000010307070F0F07070301000000000038
:100680000000000080F07C3E3E3E3E3E3E3E3E3E50
:100690003EBEFE7E3E0E060000020100000000008D
:1006A0000000C0E0F87C0E03010000000000000024
:1006B0000000000080F0FCFFFF1F030000000000AE
:1006C0000000000000000000C0FCFFFFFFFF03006F
:1006D00000000000000000000000000000000F0704
:1006E00007030303000000000000000000000000FA
:1006F00000000080E030181E1F1F1F3F3F3F3F7E5D
:10070000FEFCF8E000000000FEFFFFF0E0E0E0E0AB
:10071000E0E0C0C0E0F09F8F07010000000081E32F
:10072000F31F0F07070F0F0F0F0F0F1F1F3F7FFE46
:10073000F800003EFFFFFFF8F0E0E0C0C0C0C0C01E
:10074000C0C0E060100F03000000000103070707AE
:100750000F0F0F0F0703030100000000000000004F
:100760000080E0F038181C3E3F7FFEFEFCF8F0E011
:10077000C000000000FCFFFFFFE080000000000060
:100780000001030F3FFFFFFFF80000030F1F3F7F33
:10079000FFFE7C3C18180C04060301FFFFFF1F003E
:1007A00000000040E0FCF8F8F0E0E0C0C080C0705D
:1007B0003F1F0700000000000000000101030707C1
:1007C0000F0F070301000000000000001E300000B2
:1007D000000000000080C0E070F8FCFEFFFFFEFE9D
:1007E000FCF8F8F0E0C0000000000000000000C0CD
:1007F000F0FCFE1F0300000000010103070F1F3F74
:100800007FFFFFFFFFFEF8E0000000F0FFFFFFFFAB
:1008100000000000000000000000000000000001D7
:100820000F7FFFFFFFFFFE00007FFFFFFFFFFCE0E9
:1008300000000000000000000000000000000000B8
:10084000FFFFFFFF0F000000031F7FFFFFFFFFFE02
:10085000F8F0E0C0C080000000000080E0FC3F0F26
:100860000300000000000000000001070F1F1F3FF1
:100870007F7FFFFF7F3F1E0E060301000000000088
:10088000000000000000000000C0603078FCFEFFA7
:10089000FEFCF8E000000000000000000000000086
:1008A000000000000000000000000001FFFFFFFF4B
:1008B000FFFF00000000000000000000000000003A
:1008C00000000000000000000000FFFFFFFFFFFF2E
:1008D0000000000000000000000000000000000018
:1008E0000000000000000000FFFFFFFFFFFF00000E
:1008F00000000000000000000000000000000000F8
:10090000000000000000FFFFFFFFFFFF00000000ED
:100910008000000000000000000000000000000057
:100920000000060F0F1F3F7FFF7F3F1E0C060301D5
:1009300000000000000000000000000080C0E0F0A7
:10094000F8FCFEFEFFFE7C3C1870E0E0C0808000FA
:10095000000000000000080C1E7FFF7F3F1F0F07F4
:10096000030100000000000001FFFFFFFFFFFEFE8B
:100970000000000000000000000000000000000077
:1009800000000080C0F0FEFFFFFFFF3F0F030000EC
:10099000000000000000000000000080C0E0F8FC43
:1009A0007E3F3F1F0F070301000000000000000012
:1009B000000000C0E0703C1E8F878383C1C0C0C0B0
:1009C000C0C0808080808000000000000080F07C3B
:1009D0007F3F3E3F3F1F1F1F1F1F1F1F1F3F3F3FE8
:1009E0007F7FFFFF7F1F0F070200000000000080D5
:1009F000C0E0F0F8FCFCFEFF7E3E1C1C1818F0F076
:100A0000E0E0C0C080000000000000000101071FFE
:100A10000F07030301000000000000E0FFFFFFFFDD
:100A2000FFFF1F00000000000000000000006060E9
:100A30006070707078F8FCFEFFFF9F8F0F07010059
:100A400000000000000000000000000000000000A6
:100A5000000000000001030F3FFFFFFFFEFCF8C095
:100A600000000010387CFEFFFEFCF8F0F0E0C080D3
:100A700000000000000000FFFFFFFFFFFF3F00003D
:100A800000000000000103070F1F3F7FFFFF7F7E74
:100A90003C38181C1F0F070703010000000000006E
:100AA0000000000000000000000080C070F8FEFFA1
:100AB000FEFEFCF00000000000000000000000004E
:100AC00000000080C070180E03000000FFFFFFFF51
:100AD000FFFF0000000000000000000080E0701C2C
:100AE00006030000000000000000FFFFFFFFFFFF03
:100AF0000000000000000000000FFFFCFCFCFCFCFC
:100B0000FCFCFCFCFCFCFCFCFFFFFFFFFFFFFCFC13
:100B1000FCFCFCFCE0000000000000000000000005
:100B2000000000000000FFFFFFFFFFFF00000000CB
:100B300000000000000000000000000000000000B5
:100B40000000060F1F3F3F7FFF7F3F1E0E06030181
:100B5000000000000000000080FEFEFEFEFEFEFE23
:100B6000FEFEFEFEFEFEFEFEFE1E06000000000073
:100B70000000000000C0FF010000000000000000B5
:100B800080C08000000000000000000000000000A5
:100B90000000F0BF80C0607030181C3E3E7F7FFFB9
:100BA000FFFFFFFEFCF8E0C00000000000000004B2
:100BB000030301000000000000000000000001032A
:100BC0000F3FFFFFFFFFFE0000000080C0E0FCF8C9
:100BD000F8F0E0E0C0C0800000000000000000C0AD
:100BE000FFFF7F1F030000000001010307070F1F25
:100BF0001F3F7F7FFFFF7F7E3C3C181C0F070301D8
:100C00000000000000000000000000000000008064
:100C1000C0203078FCFEFFFEFEFCF8F8F0E0E0C0FB
:100C20004000000000000000C0F0F8FE3F07010097
:100C30000000000001030307070F0F070300000077
:100C4000000000C0FCFFFFFFFF07000080C0406005
:100C5000303078FCFEFFFEFEFCF8F0E0C000000043
:100C600000FFFFFFFFFFFFC60301010000000000BF
:100C700000000001030F3FFFFFFFFFFE0000000127
:100C80000F3FFFFFFFFFFFFCF8E0C0808000000087
:100C900000000080F0FF7F1F070000000000000040
:100CA0000001070F0F1F3F7F7FFFFF7F3F3E1E0C9E
:100CB0000603010000000000000000000000E0F852
:100CC000FEFEFEFEFEFEFEFEFEFEFEFEFEFEFEFE44
:100CD000FEFEFE7E1E0E020000301C0F030101000E
:100CE00000000000000000000080C0F0781C0F032E
:100CF00000000000000000000000000000000000F4
:100D0000000080E0F8FCFF7F0F03000000000000FF
:100D100000000000000000000000000080E0FCFE79
:100D2000FFFFFF3F03000000000000000000000084
:100D30000000000000000000E0FCFFFFFFFFFFFFDD
:100D40000F00000000000000000000000000000094
:100D50000000000000FC7F7F7F3F3F1F1F1F00003F
:100D60000000000000000000000000000000000083
:100D700000000000C06070787E7F7F7F7F7FFFFF74
:100D8000FFFEFEFCFCF8F0E0000000000000C0F8F0
:100D9000FEFF8300000000000000000000000001D2
:100DA00003FFFFFF7F1F0000000000000F3F7FFFD9
:100DB000FFFFFEFEFEFCFCFCFCFCFCFCFCFEFFFB63
:100DC000F1F0E0C000000000000000C0F0F81D07D6
:100DD000030303030303030307070707070F0F1F9B
:100DE0007FFFFFFC00000030FFFFFFFFF8E0E0C0E6
:100DF00080808000000000000000008080C0603F14
:100E00000F030000000001070F1F3F3F7F7F7FFFA0
:100E1000FFFFFFFF7F3F1F1F0F07030100000000C0
:100E20000000000000000000C0E06070787CFEFE62
:100E3000FFFEFEFCFCF8F0E0C080000000000000B7
:100E40000080F0FCFEFF070000000000000001032E
:100E5000070F1F7FFFFFFFFFFFFCF0000000007F78
:100E6000FFFFFFFFFEF0E0C08000000000000080F8
:100E700080C0E16FFFFFFFFFFFFF000000000307DE
:100E80000F1F3F7FFF7F7F3F1E1E0C0603030100E5
:100E90000000FFFFFFFF7F0700000000000080C090
:100EA000E0F8F0F0E0C0C0800000000000C0F8FFF3
:100EB0007F1F070100000000000000020307070F6A
:100EC0001F1F3F7F7FFFFF7F3E1E0F0301000000BB
:100ED000000000000000060164000080F7006400CC
:100EE0000080C40064000080A500640000808300CE
:100EF000640000807B006400008062006400008069
:100F00005200640000804100640000803E006400E4
:100F1000008031006400008029006400008021000E
:100F20006400008083004600C4004600060164009F
:100F3000008000000000003E5B4F5B3E3E6B4F6B4D
:100F40003E1C3E7C3E1C183C7E3C181C577D571CAA
:100F50001C5E7F5E1C00183C1800FFE7C3E7FF0023
:100F600018241800FFE7DBE7FF30483A060E262971
:100F7000792926407F050507407F05253F5A3CE734
:100F80003C5A7F3E1C1C08081C1C3E7F14227F22FA
:100F9000145F5F005F5F06097F017F006689956AC5
:100FA000606060606094A2FFA29408047E04081050
:100FB000207E201008082A1C08081C2A08081E1079
:100FC0001010100C1E0C1E0C30383E3830060E3E31
:100FD0000E06000000000000005F00000007000790
:100FE00000147F147F14242A7F2A122313086462BA
:100FF00036495620500008070300001C224100001B
:1010000041221C002A1C7F1C2A08083E0808008078
:101010007030000808080808000060600020100810
:1010200004023E5149453E00427F40007249494911
:10103000462141494D331814127F10274545453943
:101040003C4A494931412111090736494949364647
:101050004949291E00001400000040340000000827
:1010600014224114141414140041221408020159CA
:1010700009063E415D594E7C1211127C7F49494957
:10108000363E414141227F4141413E7F49494941EC
:101090007F090909013E414151737F0808087F001B
:1010A000417F41002040413F017F081422417F40A1
:1010B0004040407F021C027F7F0408107F3E414178
:1010C000413E7F090909063E4151215E7F091929E8
:1010D00046264949493203017F01033F4040403FD2
:1010E0001F2040201F3F4038403F63140814630313
:1010F000047804036159494D43007F414141020492
:10110000081020004141417F040201020440404098
:101110004040000307080020545478407F2844448E
:10112000383844444428384444287F3854545418A8
:1011300000087E090218A4A49C787F0804047800A3
:10114000447D40002040403D007F10284400004185
:101150007F40007C047804787C0804047838444498
:101160004438FC1824241818242418FC7C0804048F
:1011700008485454542404043F44243C4040207CF8
:101180001C2040201C3C4030403C44281028444C4B
:101190009090907C4464544C440008364100000018
:1011A000770000004136080002010204023C2623B9
:1011B000263C1EA1A161123A4040207A3854545571
:1011C000592155557941215454784121555478403D
:1011D00020545579400C1E527212395555555939C3
:1011E0005454545939555454580000457C41000218
:1011F000457D420001457C40F0292429F0F0282556
:1012000028F07C545545002054547C547C0A097FB6
:101210004932494949323248484832324A484830CE
:101220003A4141217A3A42402078009DA0A07D3980
:10123000444444393D4040403D3C24FF2424487E02
:101240004943662B2FFC2F2BFF0929F620C0887EEF
:10125000090320545479410000447D413048484AF4
:1012600032384040227A007A0A0A727D0D19317DA7
:101270002629292F28262929292630484D4020387B
:101280000808080808080808382F10C8ACBA2F103A
:101290002834FA00007B000008142A142222142AA1
:1012A00014089500220095AA005500AAAA55AA552F
:1012B000AA000000FF00101010FF00141414FF001B
:1012C0001010FF00FF1010F010F0141414FC0014A4
:1012D00014F700FF0000FF00FF1414F404FC1414C2
:1012E00017101F10101F101F1414141F00101010BF
:1012F000F0000000001F101010101F10101010F050
:1013000010000000FF101010101010101010FF102F
:10131000000000FF140000FF00FF00001F10170076
:1013200000FC04F414141710171414F404F400004F
:10133000FF00F714141414141414F700F714141401
:10134000171410101F101F141414F4141010F010A0
:10135000F000001F101F0000001F14000000FC140C
:101360000000F010F01010FF10FF141414FF141000
:1013700010101F00000000F010FFFFFFFFFFF0F053
:10138000F0F0F0FFFFFF0000000000FFFF0F0F0F65
:101390000F0F38444438447C2A2A3E147E02020649
:1013A00006027E027E0263554941633844443C0490
:1013B000407E201E2006027E020299A5E7A5991C08
:1013C0002A492A1C4C7201724C304A4D4D3030482B
:1013D000784830BC625A463D3E494949007E010189
:1013E000017E2A2A2A2A2A44445F444440514A441E
:1013F0004040444A51400000FF0103E080FF0000EC
:1014000008086B6B083612362436060F090F0600E3
:101410000018180000001010003040FF0101001FEC
:1014200001011E00191D1712003C3C3C3C0000004D
:101430000000F0F89C8E8783878E9CF8F00000FEF9
:10144000FF0303030303070EFCF80000FEFF030382
:10145000030303070EFCF80000FFFF00000000007C
:101460000000FFFF0000FEFF8383838383C7EE7CC1
:10147000380000F8FC0E07030303070EFCF8000019
:101480003F7FE0C08080C0E07F3FFFFF010101019E
:10149000010101FFFF0000FFFF0C0C0C0C1C3E774C
:1014A000E3C100007FFFC0C0C0C0C0E0703F1F00AC
:1014B000001F3F70E0C0C0C0E0703F1F00007FFF12
:1014C000C1C1C1C1C1E3773E1C00001F3F70E0C035
:1014D000C0C0E0703F1F000000000001FFFF0100DE
:1014E0000000D5F08D14A1C881CFD9F1AF200056EE
:1014F0001B02FEFE0202020206041CF8E0000000CD
:10150000FFFF402020E0C00000C0E0202020E0C01D
:10151000000000E0E040206000E0E0402020E0C06B
:10152000402020E0C00000C0E0202020E0C00000FB
:10153000000000C020C0008080008040408000800B
:101540008000C020C00000203F3F2020202030101D
:101550001C0F030000003F3F0000003F3F00001C45
:101560003C2222113F3F2000003F3F200000003F6F
:101570003F0000003F3F0000003F3F00001C3C22B6
:1015800022113F3F20000002071A229A070808078D
:1015900008171708070808071A221A070240E05818
:1015A0004458E01010E010E8E810E01010E0584453
:1015B00058E0400000000000F0F80C04041C180083
:1015C00000F0F80C04040CF8F00000FCFC00000033
:1015D00000FCFC000000FCFC080404FCF800000413
:1015E000FEFF0404F0F82C24243830000000FCFC3A
:1015F00008040C00000304030001010001020201C1
:1016000000010100030403000000000000000103CA
:10161000070604020100000103060404060301009A
:101620000003070604040207070000000707000084
:10163000000707000000070704020103070606026F
:101640000100000007070400002700460000802179
:101650000046000080A50046008300640000801F53
:10166000080000007EFF81B5B5B5CBFF7E0000000D
:101670000000000000001E21211E000000000000EC
:101680001F080000007EFF83EDEDED83FF7E00006C
:101690000000000000000010107C1010000000008E
:1016A000001F080000007EF7E7D1BDD1E7F77E00FC
:1016B000000000000000000004041F0404000000FB
:1016C00000001F080000007EEFE78BBD8BE7EF7E78
:1016D00000000000000000000010101010100000BA
:1016E0000000001F0800102844EE28387CC6D610E1
:1016F000BAD6EE7C00F810F800F888F800F8887088
:1017000000F8A8881F087CEED6BA10D6C67C382808
:10171000EE44281000003E043E003E223E003E22E1
:101720001C003E2A22171700000080000000081449
:10173000D4223F22D4140800000080000000081CBE
:101740006B886B1C22221CAA416B41AA1C22221C02
:101750006B886B1C080000000000000008141522B4
:101760007E2215140800000000000000171700007A
:101770000080000000081CD4F63FF6D41C080000CE
:101780000080000000081C7FC97F1C36361CBEE3A9
:101790006BE3BE1C36361C7FC97F1C0800000000AE
:1017A000000000081C15377E37151C0800000000DB
:1017B0000000001F08000000000000000000000002
:1017C00000000602C2320E0000000000000000000F
:1017D000000000001F0800000000000000001028AA
:1017E0001000000602C2320E000010281000000097
:1017F000000000000009160814D4223F22D4140867
:10180000000CD22D2D2DD20C00040A0A113F110A12
:101810000A040916081CD4F63FF6D41C08000CD2A2
:10182000FF2DFFD20C00040E0A1B3F1B0A0E041FE3
:10183000080000000000000000000000E292928C0E
:10184000000004FE00000000000000000000000096
:101850001F080000000000001028100000E2929213
:101860008C000004FE0000102810000000000000A2
:10187000000404060F0F060404060F0D060F1800DF
:1018800000C070180C0E1F3E7EFCF8E0800000FEC9
:10189000FFC00000000000000007FF7F00000107FC
:1018A0001F3F7C78F87020100C0300000000000837
:1018B000040EFFFEFC00000000000000000000001D
:1018C00000FFFFFF000000000000000000000030EB
:1018D0003F7FFF702010000000000020F0783C1EC9
:1018E0000F0E060CF8F0E00000000000000080C0C1
:1018F000E0783E1F0F030000C0F0687673797978B6
:101900007878F87030000010383C1E0F070282FC17
:10191000FCF87800000000000C0C0C0C0E1F7FF38C
:10192000F1E08000040E1F3E7CF8F06040203F1F75
:101930001F070000000000C020180CFFFFFE000081
:10194000000010E8E6E1E0E0E0E0FFFFFFE0E0E0BB
:101950000000000000000000307F7FFF70201001B9
:10196000000000FC0F0F0F0F0F8F0F0F0100000082
:10197000001F08040402070F1F3FFEFCF0001018B0
:101980001E3C7C78F0706020301F0F030000008048
:10199000C0F018040E0F1E3E3C1C080000FCFFFFA8
:1019A000101008040E1E3FFEFCF00000010F1F3F48
:1019B0007CF8F07020180F0701000060180E0E0E62
:1019C0000E0E0ECEEE3E0E06000000000000E0F807
:1019D000FE0F030000000000000000F87F7F3F01C1
:1019E0000000000000000000C0F0080C0F0F0F0FF7
:1019F0000F1EFE7C00000087CF7F1F1E1E1E1E1EB6
:101A00003F3C78F000001F3F7E78F8F0F0707030B7
:101A10001804030000C0E018040E0E1F3E7EFCF800
:101A2000F08000000F3F7EF870602010080DFFFF6F
:101A30003F000000183C3C78F8F060300E070100D1
:101A4000002408FE12120C00FE1212EC00FE92920C
:101A500082004C929264004C9292640000007EFFDF
:101A600083EDEDED83FF7E1F080000000000000005
:101A7000000004FE007C82827C006C92926C00006C
:101A8000000000000000000005050E1F1D190E1FBC
:101A90000800000000102810000004FE007C828274
:101AA0007C006C92926C0000102810000000000076
:101AB0006040D6296BC608304858300806090B0626
:101AC00008304858300806090B06083048583008D6
:101AD00006090B0608304858300806090B0608307E
:101AE0004858300806090B060830485830080609DF
:101AF0000B0608304858300806090B0608304858CD
:101B0000300806090B060830485830080609CB365D
:101B100060C00081815A242C180006090BD621666A
:101B2000C90B6698B060100C12160C106090B06073
:101B3000100C12160C106090B060100C12160C10E5
:101B40006090B060100C12160C106090B060100C19
:101B500012160C106090B060100C12160C106090F1
:101B6000B06806090B066890B0600018242C5A81F2
:101B700081000304056B90B0600018242C1A21C169
:101B80002060C00000000000000000000000000015
:101B90000000000000000000000000000000000045
:101BA0000000000000000000000000000000000035
:101BB0000000000000000000000000000000000025
:101BC0000000000C1216AD40C080006090B06B04A5
:101BD00005030C1216AD40C080000000000000009C
:101BE0000101804D72D68C008000000000000000D2
:101BF00000000000000000000000000000000000E5
:101C000000000000000000000000000000000000D4
:101C100000000000000000000000000000000000C4
:101C2000000000304858B5020201008040C0AD12EB
:101C3000160C304858B5020201008040C08058247C
:101C40002C180B040404432916492A5400000000F0
:101C50000000000000000000000000000000000084
:101C60000000000000000000000000000000000074
:101C70000000000000000000000000000000000064
:101C8000000000C02060D6090B0600010202B54822
:101C90005830C02060D6090B0600010202B5485832
:101CA0003000000000000000000000000000000004
:101CB0000000000000000000000000000000000024
:101CC0000000000000000000000000000000000014
:101CD0000000000000000000000000000000000004
:101CE00000008040C1815A242C180006090BD62020
:101CF00060C00081815A242C180006090BD6206090
:101D0000C02018242C1820C02060C02018242C18B3
:101D100020C02060C02018242C1820C02060C020C3
:101D200018242C1820C02060C02018242C1820C093
:101D30002060C02018242C18040C12966CC08080DF
:101D40006090B16202354858B0000018242C5A81C6
:101D500081000304056B90B060100C12160C116129
:101D600090B060100C12160C116190B060100C1243
:101D7000160C116190B060100C12160C116190B02D
:101D800060100C12160C116190B060100C12160C41
:101D9000116190B060100C12160C106192B26110BB
:101DA0000C12160D0006090B066890B060406B948B
:101DB000B5631F080000047C0400781478007C40A0
:101DC00040007C4040001C601C0000087C007C44FB
:101DD0007C00001F08000000047C040078147800D8
:101DE0007C4040007C4040001C601C00005C547C37
:101DF000000000001F08000000047C040078147834
:101E0000007C4040007C4040001C601C00007C5472
:101E10007C000000001F08000000047C040078140F
:101E200078007C4040007C4040001C601C000004A6
:101E3000047C000000001F08000000047C040078FF
:101E40001478007C4040007C4040001C601C000076
:101E50007C5474000000001F08000000047C040093
:101E6000781478007C4040007C4040001C601C00DE
:101E7000005C5474000000001F08000000047C0493
:101E800000781478007C4040007C4040001C601CBE
:101E900000001C107C000000001F08000000047CF3
:101EA0000400781478007C4040007C4040001C60B6
:101EB0001C000054547C000000001F0800000004B7
:101EC0007C0400781478007C4040007C4040001C7A
:101ED000601C000074545C000000001F080000003B
:101EE000047C0400781478007C4040007C40400072
:101EF0001C601C0000087C00000000001F40000067
:101F0000000000007C0810087C0038444438007C45
:101F1000444438007C545444000000000000000099
:101F200000000000000000000000000000000000B1
:101F30000000000000000000000000000000008819
:101F4000C80808080808C888080808088808880811
:101F50008888880888880808888080000205081D0D
:101F600005070007051D08050200000F010F000FFF
:101F7000080F000F0807000F0A0800000000003FCC
:101F80002525251A00000000000000000000001EAA
:101F900021211E0000000000000000000010187445
:101FA0004274181000000000000000000000101033
:101FB00010101000000000000000000008182E4261
:101FC0002E18080000000000000000000008083E75
:101FD000080800000000000000000000F82424248D
:101FE000F800000000000000000000002020F820A1
:101FF000200000000000080B00020202000009049B
:102000000000010202000005240010010524010166
:1020100001042402060524060001070581031000BF
:102020004009040100020A00000007050202400006
:1020300000070583024000000403090412010002A6
:10204000EF02014041233680000101020301417289
:102050006475696E6F204C4C430041726475626F09
:102060007900022211241FBECFEFDAE0DEBFCDBF20
:1020700013E0A0E0B1E0ECEFF9E502C005900D92AD
:10208000AA35B107D9F728E0AAE5B3E001C01D924F
:10209000A531B207E1F710E1C2E3D0E104C0219716
:1020A000FE010E94042BC133D107C9F70E942F22E1
:1020B0000C94FC2C0C94000080915A030895EDEAD6
:1020C000F3E0A0E0B8E000800EBC8111012C119774
:1020D000A0FDFDCF0192B9F70DB40895FC018091E8
:1020E000AC03882311F13FB7F89482E08093E900B4
:1020F0002091F200822F90E01816190614F481E066
:1021000090E0882339F0289844E64093AB0340914F
:10211000F1004083222339F02091F200211103C005
:102120002BE62093E8003FBF08958FEF9FEF0895BF
:102130002FB7F89483E08093E9009091E800892F0D
:10214000807295FF04C09091F20080E4891B2FBF3C
:1021500008958091A30381110DC082E080939F03B5
:1021600084E08093A0031092A2031092A10381E067
:102170008093A3038FE993E00895CF93DF931F9299
:10218000CDB7DEB76983DC01ED91FC910280F3816C
:10219000E02D41E050E0BE016F5F7F4F09950F9049
:1021A000DF91CF91089583E08093E9008091F20060
:1021B000882319F08AE38093E80008950E9498101C
:1021C00090E00895CF93DF931F92CDB7DEB7FC0167
:1021D0008485958597FD08C02FEF3FEF35872487CD
:1021E0000F90DF91CF910895CE0101960E946E105D
:1021F000019719F4898190E0F3CF8FEF9FEFF0CF33
:102200000F931F93CF93DF931F92CDB7DEB78C014F
:10221000FC018485958597FF0BC0CE0101960E9435
:102220006E10019771F4898190E0F8019587848799
:10223000F801848595850F90DF91CF911F910F91C3
:1022400008958FEF9FEFF1CFFC018485958597FD71
:102250000BC09FB7F89482E08093E9008091F20070
:102260009FBF90E0019608959FB7F89482E0809315
:10227000E9008091F2009FBF90E00895409199039A
:1022800050919A0320919703309198034217530776
:10229000B4F49091E8009570E1F39091E80092FD1C
:1022A00019C08093F1008091990390919A0301964F
:1022B0008F739927892B19F48EEF8093E800809112
:1022C000990390919A03019690939A0380939903AE
:1022D00081E0089580E00895DF92EF92FF920F93DE
:1022E0001F93CF93DF93D82E8A01EB017B01E40E7D
:1022F000F51ECE15DF0559F0D7FE12C0FE01849100
:102300000E943E1121968111F4CF0FEF1FEFC801FB
:10231000DF91CF911F910F91FF90EF90DF90089583
:102320008881EECF0F931F93CF93DF931F92CDB78A
:10233000DEB782E0898342E450E066EF7FE180E827
:102340000E946C110E94A910DC0112960D911C9143
:102350000115110589F0D801ED91FC910280F381FE
:10236000E02DBE016F5F7F4FC801099597FD04C046
:10237000F80100851185ECCF89810F90DF91CF9115
:102380001F910F910895615030F02091F100FC01F0
:1023900020830196F8CF289884E68093AB030895B4
:1023A000FC01248135816217730720F480819181BB
:1023B000009729F41092720382E793E00895860F44
:1023C000971F08950895AF92BF92CF92DF92EF9238
:1023D000FF920F931F93CF93DF936C017B018B01CF
:1023E000040F151FEB015E01AE18BF08C017D1071F
:1023F00059F06991D601ED91FC910190F081E02DA9
:10240000C6010995892B79F7C501DF91CF911F91FD
:102410000F91FF90EF90DF90CF90BF90AF90089515
:10242000FC0144815581608171818DE098E00C94BC
:10243000E3113FB7F89480916E0390916F03A091E0
:102440007003B091710326B5A89B05C02F3F19F00A
:102450000196A11DB11D3FBFBA2FA92F982F882724
:10246000BC01CD01620F711D811D911D42E0660FFF
:10247000771F881F991F4A95D1F708958F929F92D1
:10248000AF92BF92CF92DF92EF92FF926B017C01ED
:102490000E9419124B015C01C114D104E104F10442
:1024A000B9F00E941912681979098A099B09683ED6
:1024B00073408105910580F321E0C21AD108E1083B
:1024C000F10888EE880E83E0981EA11CB11CE4CFB1
:1024D000FF90EF90DF90CF90BF90AF909F908F9044
:1024E00008958F929F92AF92BF92CF92DF92EF9218
:1024F000FF920F931F93CF93DF936C017B018A01AF
:1025000080910C01882309F45CC08091AC0388237E
:1025100009F457C080919E0380FF05C08091E000C0
:1025200082608093E000E801B12C8AEFA82E93E04E
:10253000892E2AE3922E209711F4BB20D9F10E9414
:10254000981081110AC0AA94AA20D9F161E070E024
:1025500080E090E00E943E12EECF8C171D0611F035
:102560000CF08C2F9FB7F8948092E9002091E8003E
:1025700025FD02C09FBFDFCF282F30E0C21BD30B49
:10258000F701815020F041914093F100FACFE20E23
:10259000F31EBB2021F09092E800B12CEBCF80918C
:1025A000E80085FDE7CF9092E800BB24B394209724
:1025B00009F3F3CF5D9884E680939D03101611060E
:1025C0003CF081E090E0F6019383828310E000E02C
:1025D000C801DF91CF911F910F91FF90EF90DF9095
:1025E000CF90BF90AF909F908F90089520916203FD
:1025F000E0916003F0916103CF0102969093610333
:1026000080936003222319F085919491089580812D
:1026100091810895CF92DF92EF92FF92CF93DF9353
:102620000E94F612811520E8920791F480917100C2
:102630008D7F809371001092910046984798109278
:102640005F03DF91CF91FF90EF90DF90CF900895DF
:1026500021E020935F03813020E8920751F48091BC
:102660005D0390915E0390936103809360030E94E9
:10267000F61297FD05C020915C03222309F454C093
:1026800020915B03211150C021E020936303EC01F2
:10269000DF77209709F04BC081E080936403469870
:1026A0003FE9C32E3FE0D32EE12CF12CCAEFD0E05E
:1026B000E0910B08F0910C080995811103C081E0AD
:1026C0008093640380916303882329F080916403DD
:1026D000882309F43FC047980E94F6120097F1F151
:1026E0009C01DE010E94F52ADC01CB0129E0B595B1
:1026F000A795979587952A95D1F7109290002AE093
:1027000020939100D0929900C09298008093650325
:1027100090936603A0936703B09368038091710060
:102720008260809371008DCF10926303B0CF9E01C1
:1027300050E040E060E472E48FE090E00E946A2A9A
:1027400069017A0181E0C81AD108E108F108109204
:102750006403AECF4699BFCF479ABECF8FEF9FEFAE
:10276000DC01CBCF9C01E1E7F0E090819D7F90837D
:1027700081E0809362033093610320936003309380
:102780005E0320935D030C940A134F925F926F9245
:102790007F928F929F92AF92BF92CF92DF92EF92F1
:1027A000FF920F931F93CF93DF934C015901FC2DA0
:1027B000C02FD0E0CE01880D991D181619060CF017
:1027C0006CC020E8821691040CF067C09B012E0DAE
:1027D000311D121613060CF060C0603471050CF048
:1027E0005CC04115510509F458C0E62FE770FE2E74
:1027F000DB0177FD179633E0B595A7953A95E1F79C
:102800003A2F77FF04C0FF2011F03FEF3A0F662701
:1028100077276819790997FC02C070E060E080387A
:1028200091050CF44BC090E89819961BA32F032E2A
:10283000000CBB0B1A2F10953F3F0CF010E021E06D
:102840008E2D877009F420E0E694E694E694E20E7B
:10285000AE0DB11D19971CF028E0E22EE31AE11A23
:10286000310F20E83203D0011124A80DB91DA60FA5
:10287000B71F019F600D711D1124460F571F0F2DAB
:102880000F2C000C110BF33009F41CC1C8F4F1300B
:1028900009F4D0C0F23009F47CC0DF91CF911F91D0
:1028A0000F91FF90EF90DF90CF90BF90AF909F90EF
:1028B0008F907F906F905F904F900895902FB5CF3D
:1028C000FA3FB1F1232F2E0DFB3F39F7321729F3D1
:1028D000BD0163557C4FD12CC12CC91608F0A4C092
:1028E000FA01EC0DFD1DE491F0E04F01002E02C055
:1028F000880C991C0A94E2F737FD06C0FB01808121
:10290000E82CE0948E218083FF2061F0373054F46E
:102910005B01F0E8AF0EB11CE92CE094F501808179
:102920008E218083FFEFCF1ADF0A6F5F7F4FD5CFF5
:10293000232F2E0D321709F4B0CFBD0163557C4F04
:10294000D12CC12CC91608F069C0FA01EC0DFD1D8F
:10295000E491F0E04F01002E02C0880C991C0A940B
:10296000E2F737FD04C0FB01808188298083FF20C6
:1029700051F0373044F45B01F0E8AF0EB11CF501C3
:10298000808189298083FFEFCF1ADF0A6F5F7F4F35
:10299000D9CF6FEF70E00F2C02C0660F771F0A943B
:1029A000E2F760957095772E232F2E0D321709F4DC
:1029B00074CFFD01E355FC4F6F01B12CA12CA9167A
:1029C00038F5FA01EA0DFB1DE491F0E02F01002E2D
:1029D00002C0440C551C0A94E2F737FD05C0F6010D
:1029E0008081862384298083FF2059F037304CF47E
:1029F0004601F0E88F0E911CF40180818721852922
:102A00008083FFEFAF1ABF0A8FEFC81AD80AD7CF5B
:102A10003F5F4C0F5D1FA058BF4FC8CF3F5F4C0FAB
:102A20005D1FA058BF4F86CF3F5F4C0F5D1FA05862
:102A3000BF4F4CCF6A0D7B1D232F2E0D321709F48B
:102A40002CCFFD01E355FC4F6F01B12CA12CA91631
:102A500088F5FB01EA0DFB1D8490912C002E02C02D
:102A6000880C991C0A94E2F780949094FA01EA0D7C
:102A7000FB1D6490712C002E02C0660C771C0A941A
:102A8000E2F737FD05C0F601808188218629808321
:102A9000FF2049F037303CF4F601E058FF4F8081C9
:102AA000892187298083FFEFAF1ABF0A8FEFC81AE9
:102AB000D80ACDCF3F5F4C0F5D1F6C0F7D1FA05814
:102AC000BF4FBCCFC92ED12CFA01E60FF71FA3557B
:102AD000BC4F00E810E00C191D09CC19DD09BE013E
:102AE000660F771F41E050E06A010F2C01C0CC0C4B
:102AF0000A94EAF7592F2E2D792ECF93DF93ED010B
:102B0000EF96EF9622968590A590FF2059F08C9C29
:102B10004001AC9C500137302CF4E880B094EB209D
:102B2000E928E99233233AF0EC90A094EA20E828CF
:102B3000ED920C949C1511965A9529F72A9551F00F
:102B4000572D33951124E60FF11DA00FB11DC00FB5
:102B5000D11DD9CFDF91CF9111249FCECF92EF928B
:102B60000F93CF93DF93DC01FA0104913196E49047
:102B70004E5F5F4F2223D1F0C1E0D0E09E2D9770D1
:102B800011F4D0E0C0E0EE2DE695E695E695EC0F69
:102B9000FD2FF11D0E9FE0010F9FD00D11242C9FE2
:102BA000C0012D9F900D1124480F591F82E0C82E9F
:102BB00030E020E0CD010E94C513DF91CF910F914D
:102BC000EF90CF9008952D9A0895BC0190E080E099
:102BD0000C943E128FB18095807F669B88601C9B11
:102BE0008460089510925A033E983F9808953E9A43
:102BF0003F9A81E080935A03089580E0EDEAF3E084
:102C000081118FEF002481938193819381930394A9
:102C1000D1F710928F0310928E03109291031092AD
:102C2000900308952F923F924F925F926F927F92FE
:102C30008F929F92AF92BF92CF92DF92EF92FF92CC
:102C40000F931F93CF93DF9300D01F92CDB7DEB7C2
:102C50006D30D1F0209100012983C0908E03D09077
:102C60008F03822F90E06A3039F510929103109211
:102C7000900343E0880F991F4A95E1F7C80ED91ECB
:102C8000D0928F03C0928E0381E090E00F900F905E
:102C90000F90DF91CF911F910F91FF90EF90DF90F8
:102CA000CF90BF90AF909F908F907F906F905F90EC
:102CB0004F903F902F900895209190033091910371
:102CC0003B832A8335E0639FF0011124EE5CF04FD3
:102CD0000A811B8140E030E1832E912C453029F0A0
:102CE0009F012F5F3F4F9490F901560128E0722E0B
:102CF000592D5170552EB801662E262F201B398173
:102D0000231760F5F12CE12C5981E51620F5603888
:102D10007105D0F495012E0D3F1D20343105A0F42E
:102D200051E021FD54E020FD550F22FD5295287FF2
:102D3000829ED0011124A60D452EA355BC4F2C9187
:102D4000552031F0252B2C93AFEFEA1AFA0ADCCF8D
:102D500040942421F8CF6F5F7F4FCECF96947A9422
:102D6000A80EB91E7110C4CF4F5F080F191F46304F
:102D700009F0B3CF2A813B815981549F200D311D29
:102D8000112430939103209390037ECF90918C0374
:102D9000982329F490918D03982381E009F480E031
:102DA0000895CF93C82F0E94EA15982F9C2381E0A5
:102DB0009C1380E0CF91089580E00C945F1082E333
:102DC00090E00E94E5150E94EA158111F8CF089560
:102DD000680F791F61507109209188033091890330
:102DE000621773072CF02C5E3F4F2817390794F4B5
:102DF000E4E7F3E021913191621773072CF02D5F26
:102E00003F4F2817390734F423E0E838F20791F7E9
:102E100081E0089580E00895E0919603ED3008F098
:102E20003AC0F0E0EA5EF84E0C94042B2317271703
:102E30002A172D1730173317361739173C173F1736
:102E40004217451748178EE19FE00C94B21388E1B2
:102E50009FE0FBCF82E19FE0F8CF8CE09FE0F5CFD1
:102E600086E09FE0F2CF80E09FE0EFCF8AEF9EE028
:102E7000ECCF84EF9EE0E9CF8EEE9EE0E6CF88EEC9
:102E80009EE0E3CF82EE9EE0E0CF8CED9EE0DDCFD2
:102E900086ED9EE0DACF089590E080E00895FC0191
:102EA00001900020E9F73197AF01481B590BBC0195
:102EB0008DE098E00C94E3110F931F93CF93DF9371
:102EC0008C01EB01FC01808191810097E1F0688128
:102ED000798161157105A9F0428153812C813D8171
:102EE0004217530770F00E94F52C8C819D81F801E8
:102EF000958384831D821C82DF91CF911F910F9156
:102F000008950E94A62B88819981F801918380837E
:102F10008A819B81938382838C819D819583848325
:102F2000198218821B821A82E5CFFC01808191816F
:102F3000009711F00C94A62B0895FC0184819581D3
:102F4000409740F0A081B1818FE090E09583848329
:102F50001F961C9208950C94542A0F931F93CF939D
:102F6000DF938C01EB010E94542A8883C8010196EB
:102F70000E94542A8983CE01DF91CF911F910F9136
:102F800008950F931F93CF93DF93E09196038DEFF6
:102F90008E0F8A30D8F4E350FF0BEE0FFF1FEC5872
:102FA000FC4F00811181C2E9D3E002591340C801EE
:102FB0008C0F9D1F0E94542A899383E0C639D8073D
:102FC000B1F7DF91CF911F910F9108951092920365
:102FD000109293031092940310929503F2CFFF92F4
:102FE0000F931F93CF93DF93EC01F62E0881198185
:102FF000C8010E94542AF81621F06F2DC8010E94C2
:103000005C2ACE01DF91CF911F910F91FF9008951F
:10301000AF92BF92CF92DF92EF92FF920F931F93E6
:10302000CF93DF9300D0CDB7DEB78B016B0124E0E7
:10303000C20ED11C7B015C01A61AB70AC5018E0D18
:103040009F1D9A838983F70161917F01CE010196CB
:103050000E94EF17EC14FD0489F7C8010F900F9040
:10306000DF91CF911F910F91FF90EF90DF90CF9064
:10307000BF90AF900895EF92FF920F931F93CF935D
:10308000DF9300D0CDB7DEB78C017B019A838983B3
:10309000FB016081CE0101960E94EF170F5F1F4F69
:1030A0001A830983F7016181CE0101960E94EF170F
:1030B000C7010F900F90DF91CF911F910F91FF905B
:1030C000EF900895CF93DF9300D0CDB7DEB7809116
:1030D0005A03882329F10E94F21560915A0382E075
:1030E00090E09A838983CE0101960E94EF1788E1D0
:1030F00090E090939103809390038CE190E0909303
:103100008F0380938E0380E293E00E944F170E940A
:10311000DC160E94DF160F900F90DF91CF9108957B
:103120000E94F71560915A0382E090E09A838983A8
:10313000CE0101960E94EF178FE496E10E94B21330
:1031400088E190E090939103809390038CE190E06C
:1031500090938F0380938E038AE293E0D6CFFC0195
:1031600080819181009711F00C94C12960E070E09A
:10317000CB0108950F931F93CF93DF93EC018881C8
:103180009981009759F02A813B812617370730F043
:1031900081E0DF91CF911F910F9108958B016F5FB7
:1031A0007F4F0E942F2C009759F0998388831B83AF
:1031B0000A832C813D81232B59F7FC011082E8CF33
:1031C00080E0E7CFEF92FF920F931F93CF93DF93AF
:1031D000EC017B01FB0101900020E9F731978F01A1
:1031E000061B170BB8010E94BA182881398181117A
:1031F00013C02115310519F0C9010E94A62B1982AF
:1032000018821D821C821B821A82DF91CF911F912E
:103210000F91FF90EF9008951D830C83B701C901B2
:10322000DF91CF911F910F91FF90EF900C94F52CAF
:103230000F931F93CF93DF93CDB7DEB7A1970FB650
:10324000F894DEBF0FBECDBF8C01CB01BA01F801EF
:103250001182108213821282158214822AE0AE013A
:103260004F5F5F4F0E94082ABE016F5F7F4FC8010A
:103270000E94E218A1960FB6F894DEBF0FBECDBF34
:10328000DF91CF911F910F910895CF93DF9300D0DD
:10329000CDB7DEB7FC011182108213821282158233
:1032A000148269831A82BE016F5F7F4F0E94E21809
:1032B0000F900F90DF91CF910895CF93DF93EC01A2
:1032C000198218821B821A821D821C8270E060E0C3
:1032D0000E94BA182881398181110FC0211531054A
:1032E00019F0C9010E94A62B198218821D821C8226
:1032F0001B821A82DF91CF9108951D821C826FE498
:1033000073E0C901DF91CF910C94F52CCF92DF923D
:10331000EF92FF920F931F93CF93DF9300D0CDB71F
:10332000DEB78091960383508A3008F0BDC060916B
:10333000920370919303809194039091950324E6F6
:1033400030E040E050E00E94D32A672B682B692BC5
:1033500009F09CC0C0908A03D0908B0323E0C21A6E
:10336000D1080D2C000CEE08FF0885E2C816D10428
:10337000E104F1040CF4A3C00E946929A70196019D
:1033800024523109410951090E946A2A6B017C01CA
:1033900024E2C20ED11CE11CF11CDA82C98264E075
:1033A00070E0C6010E94E8168823A1F220919603DE
:1033B0002350330B220F331FF901EC58FC4FD182FD
:1033C000C08280918803909189030196BE016F5F4E
:1033D0007F4F820F931F0E943B18809173038F5F72
:1033E00080937303853608F449C0C0908A03D09057
:1033F0008B0384E1C81AD1080D2C000CEE08FF08DD
:1034000025E2C216D104E104F1040CF45EC00E946E
:103410006929A701960124523109410951090E94E5
:103420006A2A6B017C0124E2C20ED11CE11CF11C52
:10343000DA82C98265E170E0C6010E94E81688233D
:10344000A1F2D0928903C092880368E873E082E118
:1034500090E00E943B181092730310E000E0B80166
:103460006C587C4F89819A810196800F911F0E9430
:103470003B180E5F1F4F0431110589F760917303EC
:1034800080918803909189030E945C2AE0919603C1
:10349000E350FF0BEE0FFF1FEC58FC4F62E973E0A7
:1034A000808191810E9408180F900F90DF91CF9139
:1034B0001F910F91FF90EF90DF90CF90089554E20D
:1034C000C52ED12CE12CF12C68CF94E2C92ED12C41
:1034D000E12CF12CADCFE091960384E0E89FF00160
:1034E0001124E95EFE4F4081518162817381809198
:1034F000920390919303A0919403B0919503841744
:103500009507A607B707B0F40196A11DB11D8093DA
:10351000920390939303A0939403B0939503481759
:1035200059076A077B0731F484E29FE00E94B213D7
:103530000C9486198FE496E1F9CF0F931F93CF93E4
:10354000DF93CDB7DEB7A4970FB6F894DEBF0FBEFA
:10355000CDBF8C01CE0149960E945D19CE014F96D8
:103560000E945D19409192035091930360919403DE
:1035700070919503D80114968D919C911597452BC8
:10358000462B472B09F440C1009709F45FC0ED9129
:10359000FC912081222309F459C0419718F0C801F9
:1035A0000E949D17F8018481958146E0489F900113
:1035B000499F300D112480E690E0821B930B969575
:1035C0008795909391038093900310928F031092AC
:1035D0008E03C8010E9410120EE010E04091920389
:1035E000509193036091940370919503CE010196DD
:1035F0000E941819BE016F5F7F4FCE0149960E944D
:103600005C17CE0101960E9495178D8D9E8D83309B
:10361000910509F4D3C1E8F48130910509F467C13B
:10362000029709F486C1CE014F960E949517CE01EC
:1036300049960E949517A4960FB6F894DEBF0FBE68
:10364000CDBFDF91CF911F910F91089509E010E058
:10365000C5CF8530910509F4A6C208F417C20697B4
:1036600011F770E060E0CE0149960E94D011FC0194
:103670006081CE0101960E944519BE016F5F7F4FA8
:10368000CE014F960E945C17CE0101960E949517BD
:10369000CE014F960E94AF18262F045F1F4F4DE7B3
:1036A00058E1B80181E090E00E94AE1561E070E061
:1036B000CE0149960E94D011DC016C91CE01019699
:1036C0000E944519BE016F5F7F4FCE014F960E9449
:1036D0005C17CE0101960E949517CE014F960E946D
:1036E000AF18262F4DE758E1B80180E190E00E9425
:1036F000AE1562E070E0CE0149960E94D011FC0147
:103700006081CE0101960E944519BE016F5F7F4F17
:10371000CE014F960E945C17CE0101960E9495172C
:10372000CE014F960E94AF18262F4DE758E1B80101
:103730008FE190E00E94AE1563E070E0CE01499603
:103740000E94D011DC016C91CE0101960E944519B6
:10375000BE016F5F7F4FCE014F960E945C17CE0176
:1037600001960E949517CE014F960E94AF18262F02
:103770004DE758E1B8018EE290E00E94AE1564E09A
:1037800070E0CE0149960E94D011FC016081CE010B
:1037900001960E944519BE016F5F7F4FCE014F9683
:1037A0000E945C17CE0101960E949517CE014F969C
:1037B0000E94AF18262F4DE758E1B8018DE390E045
:1037C0000E94AE1565E070E0CE0149960E94D011CE
:1037D000DC016C91CE0101960E944519BE016F5F1C
:1037E0007F4FCE014F960E945C17CE0101960E943A
:1037F0009517CE014F960E94AF18262F4DE758E13E
:10380000B8018CE490E02FC0009781F1ED91FC911C
:103810002081222359F1419718F0C8010E949D1779
:10382000F8018481958146E0489F9001499F300DC1
:10383000112480E690E0821B930B969587959093D8
:1038400091038093900386E190E090938F0380939F
:103850008E03C8010E94101220E041E45AE164E2A4
:1038600070E08EE190E00E94AE15DDCE87E090E042
:10387000909391038093900380E190E090938F0365
:1038800080938E0383E393E00E944F178AE290E0D7
:1038900090939103809390038CE190E090938F0339
:1038A00080938E03809196031C8A1B8A1E8A1D8A30
:1038B000188E1F8A4AE0BE016F5F7F4F8250990BBE
:1038C0000E94E829BE016F5F7F4FCE0143960E94A0
:1038D000E218CE0143960E941012CE0143960E9438
:1038E000951720E041E45AE16AE270E0BACF70E057
:1038F00060E0CE0149960E94D011DC016C91CE01AE
:1039000001960E944519BE016F5F7F4FCE014F9611
:103910000E945C17CE0101960E949517CE014F962A
:103920000E94AF18262F4CEC57E0B8018FE190E0D1
:103930009ACF70E060E0CE0149960E94D011FC0160
:103940006081CE0101960E944519BE016F5F7F4FD5
:10395000CE014F960E945C17CE0101960E949517EA
:10396000CE014F960E94AF18262F4CEC57E0B801BD
:103970008FE090E00E94AE1561E070E0CE014996C4
:103980000E94D011DC016C91CE0101960E94451974
:10399000BE016F5F7F4FCE014F960E945C17CE0134
:1039A00001960E949517CE014F960E94AF18262FC0
:1039B0004CEC57E0B8018DE290E055CF70E060E04C
:1039C000CE0149960E94D011FC016081CE01019682
:1039D0000E944519BE016F5F7F4FCE014F960E9436
:1039E0005C17CE0101960E949517CE014F960E945A
:1039F000AF18262F4CEC57E0B80181E090E00E9410
:103A0000AE1561E070E0CE0149960E94D011DC0154
:103A10006C91CE0101960E944519BE016F5F7F4FE8
:103A2000CE014F960E945C17CE0101960E94951719
:103A3000CE014F960E94AF18262F4CEC57E0B801EC
:103A40008FE190E00E94AE1562E070E0CE014996F1
:103A50000E94D011FC016081CE0101960E9445199F
:103A6000BE016F5F7F4FCE014F960E945C17CE0163
:103A700001960E949517CE014F960E94AF18262FEF
:103A80004CEC57E0B8018DE390E0EDCE70E060E0E3
:103A9000CE0149960E94D011DC016C91CE010196B5
:103AA0000E944519BE016F5F7F4FCE014F960E9465
:103AB0005C17CE0101960E949517CE014F960E9489
:103AC000AF18262F0A5F1F4F4EE753E0B80182E080
:103AD00090E00E94AE1561E070E0CE0149960E9430
:103AE000D011FC016081CE0101960E944519BE01F2
:103AF0006F5F7F4FCE014F960E945C17CE010196FB
:103B00000E949517CE014F960E94AF18262F4EE7C0
:103B100053E0B80188E190E00E94AE1562E070E0E9
:103B2000CE0149960E94D011DC016C91CE01019624
:103B30000E944519BE016F5F7F4FCE014F960E94D4
:103B40005C17CE0101960E949517CE014F960E94F8
:103B5000AF18262F4EE753E0B8018EE290E00E94A6
:103B6000AE1563E070E0CE0149960E94D011FC01D1
:103B70006081CE0101960E944519BE016F5F7F4FA3
:103B8000CE014F960E945C17CE0101960E949517B8
:103B9000CE014F960E94AF18262F4EE753E0B80192
:103BA00084E490E060CE70E060E0CE0149960E942F
:103BB000D011DC016C91CE0101960E944519BE0125
:103BC0006F5F7F4FCE014F960E945C17CE0101962A
:103BD0000E949517CE014F960E94AF18262F065FC0
:103BE0001F4F4CEA50E0B80181E090E00E94AE1512
:103BF00061E070E0CE0149960E94D011FC01608125
:103C0000CE0101960E944519BE016F5F7F4FCE0124
:103C10004F960E945C17CE0101960E949517CE0127
:103C20004F960E94AF18262F4CEA50E0B80183E16E
:103C300090E00E94AE1562E070E0CE0149960E94CD
:103C4000D011DC016C91CE0101960E944519BE0194
:103C50006F5F7F4FCE014F960E945C17CE01019699
:103C60000E949517CE014F960E94AF18262F4CEA5E
:103C700050E0B80185E290E00E94AE1563E070E08C
:103C8000CE0149960E94D011FC016081CE010196BF
:103C90000E944519BE016F5F7F4FCE014F960E9473
:103CA0005C17CE0101960E949517CE014F960E9497
:103CB000AF18262F4CEA50E0B80187E390E00E944D
:103CC000AE1564E070E0CE0149960E94D011DC018F
:103CD0006C91CE0101960E944519BE016F5F7F4F26
:103CE000CE014F960E945C17CE0101960E94951757
:103CF000CE014F960E94AF18262F4CEA50E0B80133
:103D000089E490E0B0CD1F920F920FB60F9211246C
:103D10008F939F938091E1009091E100937F909326
:103D2000E10083FF0FC01092E90091E09093EB0057
:103D30001092EC0092E39093ED001092AC0398E0A7
:103D40009093F00082FF22C093E09093E90090915D
:103D5000F200992319F09AE39093E80090919D0363
:103D6000992341F090919D03915090939D0391115F
:103D700001C05D9A9091AB03992341F09091AB0300
:103D800091509093AB03911101C0289A84FF18C001
:103D90008091E2008E7E81608093E2008091E1005C
:103DA0008F7E8093E10080919E038E7E8061809360
:103DB0009E039F918F910F900FBE0F901F901895AB
:103DC00080FFF7CF8091E2008E7E80618093E200D9
:103DD0008091E1008E7E8093E10080919E038E7E33
:103DE0008160E5CF1F920F920FB60F921124CF92F0
:103DF000DF92EF92FF920F931F932F933F934F9376
:103E00005F936F937F938F939F93AF93BF93EF9342
:103E1000FF93CF93DF93CDB7DEB76C97DEBFCDBFF7
:103E20001092E9008091E80083FF25C068E0CE0190
:103E300045960E94C31182EF8093E8008D8987FF29
:103E400039C09091E80090FFFCCF982F907609F050
:103E500034C19E894F89588D2F89F88C911131C0BA
:103E6000803861F580919C038093F1001092F100FD
:103E70008EEF8093E8006C960FB6F894DEBF0FBE0D
:103E8000CDBFDF91CF91FF91EF91BF91AF919F9106
:103E90008F917F916F915F914F913F912F911F91E2
:103EA0000F91FF90EF90DF90CF900F900FBE0F908B
:103EB0001F9018959EEF9093E800C7CF1092F100E5
:103EC000D5CF913059F48111D3CF4130510581F6CE
:103ED00080919C038D7F80939C03CACF933049F4DB
:103EE0008111C6CF4130510519F680919C03826043
:103EF000F2CF953041F48091E80080FFFCCF20683C
:103F00002093E300B5CF963009F0A9C00B8D1C8D2E
:103F100022E01092E90010929A0310929903F21293
:103F20002EC010929803109297030E9492111F8244
:103F300099E09983FA8291E09E8390EA98879AEFBC
:103F400099872091990330919A03275F3F4F3C83D3
:103F50002B838D831092E90010929A03109299039B
:103F6000109398030093970349E050E0BE016F5F00
:103F70007F4F80E00E946C110E94921179CF1093C4
:103F80009803009397030E94A910DC0112960D91EB
:103F90001C910115110509F451C1D801ED91FC9155
:103FA0000480F581E02DBE016B5E7F4FC80109954D
:103FB000009709F03EC1F80100851185EACFF3E0D2
:103FC000FF120EC08F89882309F440C0823061F44B
:103FD00040E867E08AE590E20E94CF21811148CF56
:103FE00081E28093EB0047CF813029F440E86BE019
:103FF0008EE490E2F1CF833099F70E94A910DC01A2
:104000001296ED90FC908E010F5F1F4F6801E11436
:10401000F10479F0D701ED91FC910680F781E02D54
:10402000B801C7010995080F111DF701E084F1845B
:10403000EECFD8011C92F60101900020E9F73197EC
:10404000BF016C197D0940E0C601C6CF68E370E28C
:10405000FB01449150E080E80E946C1109CF973039
:1040600009F4BECF983021F481E08093F10000CFB5
:10407000993009F0FDCE837009F0B2CFECEFF2E099
:1040800081E031E096E32191222371F08093E900F1
:104090003093EB00DF0111972C912093EC0090936B
:1040A000ED008F5F873079F78EE78093EA001092FA
:1040B000EA008F898093AC03DBCE8B8D9C8D1092B0
:1040C000E90010929A0310929903909398038093B9
:1040D0009703898D811192C08E899D89913A49F407
:1040E000813209F07DCF47E050E065E071E080E08B
:1040F000B3CF913209F074CF833269F48F89988DF0
:10410000B0E0A0E08093010190930201A09303012D
:10411000B0930401ADCE803269F48091E80082FF53
:10412000FCCF67E085E091E00E94C3118BEF8093A4
:10413000E8009ECE823209F09BCE8F8980930C01DD
:10414000EEEFFFE7859194918B3F9C4D51F1E0E0BC
:10415000F8E08091050190910601A0910701B091CE
:104160000801803B9440A105B105F1F480910C0158
:1041700080FD1AC0EE3F8AE0F80789F587E797E7E8
:10418000918380838091600080939B0388E19BE012
:104190000FB6F894A895809360000FBE90936000CE
:1041A00067CEEEEFFAE0D5CF8081918187379747D0
:1041B00009F05ECEA89580916000886180936000D0
:1041C00080919B0380936000EE3F2AE0F20789F024
:1041D0008091FE0A9091FF0A9183808349CE80816D
:1041E00091818737980751F29093FF0A8093FE0AD6
:1041F000C5CF1092FF0A1092FE0A3ACE0E94A91073
:10420000DC0112960D911C910115110509F4E8CEFF
:10421000D801ED91FC910190F081E02DBE016B5E23
:104220007F4FC8010995811123CEF80100851185C2
:10423000EBCF181619060CF41BCED2CEF1E0FF120C
:10424000BECE6CE370E204CF1F920F920FB60F92B6
:1042500011242F933F938F939F93AF93BF9380919C
:104260006A0390916B03A0916C03B0916D03309140
:10427000690323E0230F2D3758F50196A11DB11DC9
:104280002093690380936A0390936B03A0936C035C
:10429000B0936D0380916E0390916F03A0917003B2
:1042A000B09171030196A11DB11D80936E0390938F
:1042B0006F03A0937003B0937103BF91AF919F916F
:1042C0008F913F912F910F900FBE0F901F901895D7
:1042D00026E8230F0296A11DB11DD2CF1F920F9287
:1042E0000FB60F9211242F933F934F935F936F93C9
:1042F0007F938F939F93AF93BF93EF93FF9380919F
:10430000650390916603A0916703B0916803892BC0
:104310008A2B8B2B09F440C08091640381110BC060
:1043200088B190E4892788B980916303882319F0C4
:1043300088B1805888B98091650390916603A091F7
:104340006703B0916803181619061A061B069CF439
:104350008091650390916603A0916703B091680313
:104360000197A109B1098093650390936603A09317
:104370006703B0936803FF91EF91BF91AF919F9155
:104380008F917F916F915F914F913F912F910F90FE
:104390000FBE0F901F9018950E940A13ECCFEF925A
:1043A000FF920F931F93CF93DF93F82E192FE62ED2
:1043B000042F81E0860F880F0E943E1183E00E9447
:1043C0003E11CF2DD12FEC0EFD2EF11CCE15DF05A9
:1043D000B9F007FF13C0FE0184910E943E11182F0F
:1043E00080E00E943E11812321968111EFCFDF9161
:1043F000CF911F910F91FF90EF9008958881EDCF9D
:1044000081E0F5CFEDEAF7E01382128288EE93E0C7
:10441000A0E0B0E084839583A683B78386E093E031
:10442000918380838FEF9FEF95878487EDE0F8E09D
:104430001382128288E193E0918380838CE590E17E
:1044400090930C0880930B0880E090E890930A0802
:104450008093090846983E9A47983F9A0895CF93CB
:10446000DF93CDB7DEB764970FB6F894DEBF0FBE0B
:10447000CDBF789484B5826084BD84B5816084BDED
:1044800085B5826085BD85B5816085BD80916E00F2
:10449000816080936E001092810080918100826023
:1044A0008093810080918100816080938100809160
:1044B0008000816080938000809191008260809371
:1044C0009100809191008160809391008091900093
:1044D0008160809390008091C10084608093C100CE
:1044E0008091C10082608093C1008091C100816091
:1044F0008093C1008091C30081608093C30080914C
:10450000C00082608093C0008091C200816080936F
:10451000C20080917A00846080937A0080917A0052
:10452000826080937A0080917A00816080937A0023
:1045300080917A00806880937A001092AC03109288
:104540009C0310929E038091D70081608093D700D6
:1045500080EA8093D80089B5806189BD89B5826081
:1045600089BD09B400FEFDCF61E070E080E090E01D
:104570000E943E128091D8008F7C80618093D80089
:104580008091E000807F8093E0008091E1008E7E4A
:104590008093E1008DE08093E200559A209A80E0BC
:1045A00094E090938B0380938A0319821A821B8272
:1045B0001C8280E190E00E94AB17803609F4A4C011
:1045C00060E081E190E00E945C2A84E190E09093B9
:1045D00089038093880368E873E082E190E00E9499
:1045E0003B1860E080918803909189030E945C2AC7
:1045F00074E7E72E73E0F72E10E000E08091880367
:10460000909189039C012B5E3F4FA801440F551FD9
:10461000240F351FF701318320830196B701800FE6
:10462000911F0E943B18BE016F5F7F4FF701819180
:1046300091917F010E9408180E5F1F4F04311105F0
:10464000E9F660E680E190E00E945C2A81EC8093CC
:104650007C0085B1806F85B984B1877E84B984B1CF
:10466000876E84B95E9A5F988AB1806D8AB9769AAE
:104670006E9881B3806F81BB899880B38D7080BB49
:1046800080E58CBD81E08DBD85E090E00E94E51560
:104690005F9A85E090E00E94E5155E985C98E2EEF6
:1046A000F4E184918EBD00000DB407FEFDCF31967C
:1046B00004E1EF3EF007A9F75C9A81E8809364007B
:1046C000809165008160809365000E94DC1680E81F
:1046D0000E94D11602E010E0882309F43FC05C98E4
:1046E00085EA8EBD00000DB407FEFDCF5C9A2E98C2
:1046F0002F982D988091640080628093640081E0FF
:1047000083BF889513BEFCCF81E190E00E94AB1778
:104710008093960368E873E082E190E00E94AD1711
:1047200080918803909189030E94542A8093730397
:1047300010E000E0B8016C587C4F809188039091A4
:1047400089030196800F911F0E94AD170E5F1F4FC6
:104750000431110579F70E94C11778CF84E00E94D7
:10476000D116882309F440C02D9884E80E94D11600
:104770008823C1F00E94E31588EC90E00E94E515C3
:104780002F981A8309836FEFCE0101960E94EF17CD
:1047900084EF91E00E94E5152F9A84E80E94D116DB
:1047A0008111FBCF84E10E94D1168823C1F00E94C1
:1047B000E31588EC90E00E94E5152E981A83098392
:1047C00060E0CE0101960E94EF1784EF91E00E9415
:1047D000E5152E9A84E10E94D1168111FBCF88EC59
:1047E00090E00E94E515BACF0E94E31582E090E0C8
:1047F0000E94AB17882309F47EC10E94F71581E05F
:1048000090E00E94AB1781FF14C0182F1470312E56
:1048100082FD2E9801EF1FEF88E0A82EB12C80E4D6
:104820000E94D116882309F469C12E9A2F9A0E94FA
:10483000E3150E94DF16809164008E7F80936400F0
:1048400080917A00806480937A0080917A0086FD5E
:10485000FCCF00917800109179000E941912AB01F1
:10486000BC01C801B0E0A0E0DC01992788278C01D9
:104870009D01040F151F261F371FC901B801209184
:104880006400216020936400611571058105910524
:1048900011F00E94B8290E94FD1520E04FEE54E16E
:1048A00060E170E084E190E00E94AE150E94DC16A9
:1048B00088EE93E00E94E5150E94FD15E1E1AE2E21
:1048C000B12C76E1272E312C0E94FD1580918D03AD
:1048D00080938C030E94EA1580938D0320E04CEFB7
:1048E0005EE170E060E080E690E00E94AE1580E25C
:1048F0000E94C6168823A1F08091960381508D30C6
:1049000008F0C0C1809396030E940C17BA82A98256
:1049100060919603CE0101960E94EF170E94C11785
:1049200080E40E94C6168823A1F0809196038F5FD1
:104930008D3008F0A9C1809396030E940C17BA82AB
:10494000A98260919603CE0101960E94EF170E9402
:10495000C11780E80E94C616882351F18091920306
:1049600090919303A0919403B0919503892B8A2B86
:104970008B2B09F48CC189E496E10E94B2138091DB
:10498000920390919303A0919403B09195030097A3
:10499000A105B10559F00197A109B10980939203CE
:1049A00090939303A0939403B09395030E94861968
:1049B00080E10E94C61681110E946B1A88E00E9455
:1049C000C61681110E946B1A84E00E94C6168823C5
:1049D000D9F08091920390919303A0919403B091A8
:1049E0009503892B8A2B8B2B09F454C185E596E11D
:1049F0000E94B213109292031092930310929403A8
:104A0000109295030E94861980E20E94D116882395
:104A100049F020E044E057E165E170E080E690E095
:104A20000E94AE1580E40E94D116882349F020E050
:104A300043EE56E165E170E080E690E00E94AE153D
:104A400080E80E94D116882379F020E042EC56E1FC
:104A500067E270E080E690E00E94AE1580E10E947F
:104A6000C61681110E94621880E10E94D116882327
:104A700079F020E041EA56E160E370E080E690E002
:104A80000E94AE1580E80E94C61681110E9462182D
:104A900088E00E94D116882349F020E040E856E1E2
:104AA00068E370E080E690E00E94AE1584E00E942A
:104AB000D116882349F020E04FE556E16EE170E021
:104AC00080E690E00E94AE15E0919603ED3008F08C
:104AD00065C1F0E0E259FA4D0C94042B4D26D8261E
:104AE0005327E528F928FD280129052909290D2939
:104AF0001129152919290E94F21581CE332029F098
:104B00000430110511F42E9A2F9881E00E945F1055
:104B1000980117FF04C022273327201B310B277071
:104B20003327C80117FD0796B3E095958795BA9589
:104B3000E1F717FF05C00197A501421B530B9A012E
:104B4000AC015695542F44275795479543555C4FD4
:104B5000F12CE12C2501421A530A8E3F6FEF960784
:104B600009F43EC0DA0170E060E0F701EE5CFB4E54
:104B70004F013A01F0E86F0E711C8F3F980781F0EA
:104B8000F401E60FF71FE491022E01C0EE0F0A9424
:104B9000EAF75496FC915497EF2B5496EC93549764
:104BA00021153105B9F0F401E60FF71F24906301D8
:104BB000C60ED71EE22DF0E0042C02C0F595E79555
:104BC0000A94E2F7FC8BEB8BF6012488FB892F2AF1
:104BD000F601248A6F5F7F4F11966835710569F67B
:104BE0000196F8E5EF0EF11C40585F4F60EBE616BA
:104BF000F10409F0B2CF0E94DC168FE090E00E9431
:104C0000E5150F5F1F4F0931110509F008CE33205C
:104C100011F02F9A2D9880E991E00E94E5150E94ED
:104C2000E31581E090E00E94AB1780FF02CE8AE09E
:104C300090E00E94AB179FEF980F9E3F08F0F9CDD0
:104C400022E330E0309391032093900328E330E097
:104C500030938F0320938E030BE010E0682F8DE0DC
:104C600098E00E941216C8010E94AB170F5F1F4FF9
:104C70000131110599F70E94DC1688EE93E00E943D
:104C8000E515D7CD8CE03ECE1092960356CE8FE43C
:104C900096E173CE8FE496E1ABCE80919203909132
:104CA0009303A0919403B091950320E00797A10589
:104CB000B10509F03FC044ED57E169E070E080E6DE
:104CC00090E00E94AE156CE6E62E67E1F62E80912C
:104CD000920390919303A0919403B0919503892B33
:104CE0008A2B8B2BE1F110E000E0412C512C32019A
:104CF00043948091920390919303A0919403B09177
:104D0000950384159505A605B70508F447C025E069
:104D100042165104E4F420E0A70168E070E0C80105
:104D20000E94AE153FEF431A530A630A730A085EE6
:104D30001F4FDFCF43EB57E169E070E080E690E082
:104D40000E94AE1555E2E52E57E1F52EC0CF20E0CA
:104D5000A70168E270E0C80185559109E1CF82E0C2
:104D6000809300018BE090E09093910380939003F7
:104D700085E190E090938F0380938E0381E493E02C
:104D80000E944F1781E08093000120E041E45AE146
:104D90006AE270E08EE190E00E94AE150E94DC169F
:104DA00080E090E0892B09F48FCD0E94000089CD2E
:104DB0008091920390919303A0919403B0919503F5
:104DC00020E04597A105B10509F040C040E558E154
:104DD00069E070E080E690E00E94AE1532E1E32EDB
:104DE00038E1F32E8091920390919303A091940364
:104DF000B0919503892B8A2B8B2B09F442C010E0CC
:104E000000E0412C512C3201439480919203909107
:104E10009303A0919403B091950384159505A6057D
:104E2000B70508F4BBCFC20120E0A7018930910586
:104E3000D4F461E070E0C8010E94AE154FEF441A4F
:104E4000540A640A740A045F1F4FDFCF4FE258E12F
:104E500069E070E080E690E00E94AE1525EFE22E5A
:104E600027E1F22EBFCF409734F465E170E0C8012E
:104E70008A559109E1CF69E270E0C801885A910929
:104E8000DBCF82E08093000185E090E09093910376
:104E90008093900385E190E090938F0380938E033D
:104EA00088E493E06DCFCE010D960E945D19CE018E
:104EB00007960E945D1920E040EB5AE170E060E047
:104EC00090E080E00E94AE15809192039091930350
:104ED000A0919403B091950320E08C369105A10533
:104EE000B10509F05EC04FE85AE169E070E080E684
:104EF00090E00E94AE1520E048E85AE16EE170E0D3
:104F000080E190E00E94AE1540919203509193038E
:104F100060919403709195034115510561057105E8
:104F200009F446C0CE0101960E941819BE016F5FB8
:104F30007F4FCE010D960E945C17CE0101960E9414
:104F4000951789899A898230910509F483C0833045
:104F5000910509F4C6C0019709F041C070E060E016
:104F6000CE010D960E94D011FC016081CE01019608
:104F70000E944519BE016F5F7F4FCE0107960E94C8
:104F80005C17CE0101960E949517CE0107960E94EC
:104F9000AF18262F4DE758E165E170E089E290E017
:104FA0001CC047E65AE169E070E080E690E0AACFD5
:104FB000E9E1F0E0F0939103E093900330928F03E6
:104FC00020928E0380E593E00E944F1720E041E499
:104FD0005AE164E270E080E290E00E94AE1503E2E4
:104FE00012E01C8B0B8B8BE4882E81E0982E80E0E6
:104FF00090E0DC012C013D011FEF411A510A610ACA
:10500000710A4091920350919303609194037091BF
:10501000950384179507A607B70708F0CDC0EB895D
:10502000FC8961917191FC8BEB8BF40181919191E1
:105030004F01E7E7F8E10491E8E7F8E1E490CC24D8
:10504000C39421E738E149E758E10E94C513D30131
:10505000C201D0CF70E060E0CE010D960E94D01169
:10506000FC016081CE0101960E944519BE016F5F6F
:105070007F4FCE0107960E945C17CE0101960E94D9
:105080009517CE0107960E94AF18262F4DE758E1DD
:1050900065E170E081E290E00E94AE1561E070E0B1
:1050A000CE010D960E94D011FC016081CE010196C7
:1050B0000E944519BE016F5F7F4FCE0107960E9487
:1050C0005C17CE0101960E949517CE0107960E94AB
:1050D000AF18262F4DE758E165E170E080E390E0DE
:1050E0007CCF70E060E0CE010D960E94D011FC01F3
:1050F0006081CE0101960E944519BE016F5F7F4F0E
:10510000CE0107960E945C17CE0101960E9495176A
:10511000CE0107960E94AF18262F4DE758E165E1B2
:1051200070E088E190E00E94AE1561E070E0CE0191
:105130000D960E94D011FC016081CE0101960E9463
:105140004519BE016F5F7F4FCE0107960E945C1725
:10515000CE0101960E949517CE0107960E94AF18C6
:10516000262F4DE758E165E170E087E290E00E946C
:10517000AE1562E070E0CE010D960E94D011FC01E8
:105180006081CE0101960E944519BE016F5F7F4F7D
:10519000CE0107960E945C17CE0101960E949517DA
:1051A000CE0107960E94AF18262F4DE758E165E122
:1051B00070E086E390E011CFCE0107960E9495172C
:1051C000CE010D960E949517E9CD20E04BED5EE1F2
:1051D00069E070E080E690E00E94AE15CE01019695
:1051E0000E945D19CE0101960E949D1ACE01019682
:1051F000E9CF20E04AEB5EE1EBCF20E049E95EE158
:10520000E7CF20E048E75EE1E3CF20E047E55EE15D
:10521000DFCF20E046E35EE1DBCF20E045E15EE169
:10522000D7CF20E044EF5DE1D3CF20E043ED5DE157
:10523000CFCF20E042EB5DE1CBCF8F929F92AF9238
:10524000BF92CF92DF92EF92FF92CF93DF93EC0168
:10525000688179818A819B8161157105810591053C
:1052600021F464E279ED8BE597E02DE133EF41E045
:1052700050E00E946A2A49015A019B01AC01A7EA49
:10528000B1E40E94892A6B017C01ACEEB4EFA50168
:1052900094010E94972AC60ED71EE81EF91EF7FE3B
:1052A00006C081E0C81AD108E10880E8F80AC8827F
:1052B000D982EA82FB82C701B6019F77DF91CF9145
:1052C000FF90EF90DF90CF90BF90AF909F908F9026
:1052D00008958F929F92AF92BF92CF92DF92EF92FA
:1052E000FF9260910D0170910E0180910F019091DC
:1052F0001001611571058105910521F464E279EDD4
:105300008BE597E02DE133EF41E050E00E946A2AFF
:1053100049015A019B01AC01A7EAB1E40E94892A24
:105320006B017C01ACEEB4EFA50194010E94972AB9
:10533000C60ED71EE81EF91EF7FE06C081E0C81A89
:10534000D108E10880E8F80AC0920D01D0920E0160
:10535000E0920F01F0921001C701B6019F77FF9014
:10536000EF90DF90CF90BF90AF909F908F90089577
:1053700060930D0170930E0180930F0190931001C3
:1053800008951F93FC0199278827BC01E894119187
:105390001032E9F3193010F01E30C8F31B3251F00F
:1053A0001D3249F4689406C00E94F329610F711DF3
:1053B000811D911D119110531A30B0F33EF4909558
:1053C0008095709561957F4F8F4F9F4F1F910895E6
:1053D000BB274A3031F4992322F4BDE290958195A0
:1053E0009F4F0C942B2A592F482F372F262F660FAB
:1053F000771F881F991F660F771F881F991F620FDD
:10540000731F841F951F660F771F881F991F0895AC
:10541000BB27FA01A62F6217710581059105330B91
:1054200030FB66F0AA27660F771F881F991FAA1FF7
:10543000A21710F0A21B63953850A9F7A05DAA33FC
:1054400008F0A95DA19336F7B111B1931082CA019A
:105450000C94442ABB27FB015527AA27880F991FC4
:10546000AA1FA41710F0A41B83955051B9F7A05D93
:10547000AA3308F0A95DA193009779F7B111B19310
:105480001192CB010C94442ADC01FC01672F71912D
:105490007723E1F7329704C07C916D93708362911A
:1054A000AE17BF07C8F30895F999FECF92BD81BD2D
:1054B000F89A992780B50895262FF999FECF1FBA3B
:1054C00092BD81BD20BD0FB6F894FA9AF99A0FBE2D
:1054D00001960895052E97FB1EF400940E94812AE0
:1054E00057FD07D00E94D32A07FC03D04EF40C943A
:1054F000812A50954095309521953F4F4F4F5F4FF2
:10550000089590958095709561957F4F8F4F9F4F2F
:1055100008950E94F52AA59F900DB49F900DA49F19
:10552000800D911D11240895B7FF0C94892A0E94C3
:10553000892A821B930B08952F923F924F925F927C
:105540006F927F928F929F92AF92BF92CF92DF9293
:10555000EF92FF920F931F93CF93DF93CDB7DEB7F8
:10556000CA1BDB0B0FB6F894DEBF0FBECDBF09948C
:105570002A88398848885F846E847D848C849B84E3
:10558000AA84B984C884DF80EE80FD800C811B81F1
:10559000AA81B981CE0FD11D0FB6F894DEBF0FBE20
:1055A000CDBFED010895A1E21A2EAA1BBB1BFD0180
:1055B0000DC0AA1FBB1FEE1FFF1FA217B307E407F2
:1055C000F50720F0A21BB30BE40BF50B661F771F4A
:1055D000881F991F1A9469F760957095809590952A
:1055E0009B01AC01BD01CF010895A29FB001B39F03
:1055F000C001A39F700D811D1124911DB29F700DDC
:10560000811D1124911D0895EE0FFF1F0590F49147
:10561000E02D09940F931F93CF93DF938230910570
:1056200010F482E090E0E0911308F091140830E06B
:1056300020E0B0E0A0E0309799F42115310509F49D
:105640004AC0281B390B24303105D8F58A819B814B
:105650006115710589F1FB0193838283FE0111C0FD
:10566000408151810281138148175907E0F04817A2
:10567000590799F4109761F012960C9312971396AC
:105680001C933296CF01DF91CF911F910F91089516
:105690000093130810931408F4CF2115310551F02D
:1056A0004217530738F0A901DB019A01BD01DF0160
:1056B000F801C1CFEF01F9CF90931408809313083C
:1056C000CDCFFE01E20FF31F819391932250310958
:1056D00039832883D7CF2091110830911208232BCA
:1056E00041F420911301309114013093120820935A
:1056F000110820911101309112012115310541F459
:105700002DB73EB74091150150911601241B350B62
:10571000E0911108F0911208E217F307A0F42E1B94
:105720003F0B2817390778F0AC014E5F5F4F241705
:10573000350748F04E0F5F1F509312084093110831
:10574000819391939FCFF0E0E0E09CCFCF93DF93E4
:105750000097E9F0FC01329713821282A09113089E
:10576000B0911408ED0130E020E01097A1F4208101
:105770003181820F931F2091110830911208281750
:10578000390709F061C0F0931208E0931108DF9126
:10579000CF910895EA01CE17DF07E8F54A815B81D2
:1057A0009E0141155105B1F7E901FB83EA83499157
:1057B0005991C40FD51FEC17FD0761F480819181C9
:1057C0000296840F951FE9019983888382819381D2
:1057D0009B838A83F0E0E0E012968D919C91139771
:1057E0000097B9F52D913C911197CD010296820F4A
:1057F000931F20911108309112082817390739F6A4
:10580000309751F51092140810921308B0931208B3
:10581000A0931108BCCFD383C28340815181840FF0
:10582000951FC817D90761F44E5F5F4F8881998132
:10583000480F591F518340838A819B8193838283C0
:105840002115310509F0B0CFF0931408E093130847
:105850009ECFFD01DC01C0CF13821282D7CFB0E012
:10586000A0E0E5E3FCE20C949E2A8C01009751F441
:10587000CB010E940A2B8C01C801CDB7DEB7E0E155
:105880000C94BA2AFC01E60FF71F9C012250310943
:10589000E217F30708F49DC0D901CD91DC9111976F
:1058A000C617D70798F0C530D10530F3CE0104975D
:1058B0008617970708F3C61BD70B2297C193D1937E
:1058C0006D937C93CF010E94A62BD6CF5B01AC1ABF
:1058D000BD0A4C018C0E9D1EA0911308B0911408B6
:1058E000512C412CF12CE12C109731F580911108AD
:1058F000909112088815990509F05CC04616570664
:1059000008F058C08091110190911201009741F464
:105910008DB79EB74091150150911601841B950BD0
:10592000E817F90708F055C0F0931208E093110842
:10593000F90171836083A0CF8D919C91119712968C
:105940006C90129713967C901397A815B90559F58A
:105950006C0142E0C40ED11CCA14DB0420F1AC017E
:105960004A195B09DA011296159780F062827382F8
:1059700051834083D9016D937C93E114F10471F05C
:10598000D7011396FC93EE93129776CF22968C0F45
:105990009D1FF90191838083F301EFCFF0931408E9
:1059A000E093130869CF4816590608F42C017D01CD
:1059B000D3019ACFCB010E940A2B7C01009749F0BA
:1059C000AE01B8010E94EC2CC8010E94A62B8701F1
:1059D00053CF10E000E050CFFB01DC0102C001908A
:1059E0000D9241505040D8F70895FB01DC01019021
:0C59F0000D920020E1F70895F894FFCF1D
:1059FC0001FFFFFFFF00E1000000000000010000BC
:105A0C000000001508800007000000150000006C65
:105A1C000000003F420F003F420F003F420F003F8B
:105A2C00420F003F420F003F420F003F420F003F2A
:105A3C00420F003F420F003F420F0011000D0008C3
:105A4C00000B0008000D00100015001A001F0024A8
:105A5C000029002E00330038003D00420047004C66
:105A6C000050005400510054005100540051005497
:105A7C000050005300530057005C005C0059005C60
:105A8C000059005C0059005C0059005C0059005C36
:105A9C00005A00550050004B00460041003C0037B6
:105AAC000032002D00280023001E00190014000FE6
:105ABC00000A0005000000000003000000030000C5
:105ACC0000030000000300000003000000030008B6
